:0400000056EF00F0C7
:100008005882FACF1DF0FBCF1EF0E9CF1FF0EACFE0
:1000180020F0E1CF21F0E2CF22F0D9CF23F0DACFE0
:1000280024F0F3CF25F0F4CF26F0F6CF27F0F7CF62
:1000380028F0F8CF29F0F5CF2AF0F2BAF2A403D0CD
:10004800BEEC0FF010D09DBA9EAA03D08AEC0FF038
:100058000AD09DB89EA803D0DCEC0FF004D0F2B80B
:10006800F2A201D0F292F1842AC0F5FF29C0F8FF6C
:1000780028C0F7FF27C0F6FF26C0F4FF25C0F3FF0E
:1000880024C0DAFF23C0D9FF22C0E2FF21C0E1FF6C
:1000980020C0EAFF1FC0E9FF1EC0FBFF1DC0FAFF1A
:1000A80058921100E8EF0DF0136E1350D0EC0FF0DA
:1000B8004E50010D2B0EF324D96E000EF420DA6E8B
:1000C80013C0DFFF3B4A3C2A4E50010D2B0EF32490
:1000D800D96E000EF420DA6EDE28D8A47BD1070E84
:1000E8003B183C10D8A4BAD0FA0E0A6EFF0E0B6E5D
:1000F8004E500C6E0D6A0A500C260B500D222B0E1A
:100108000C24D96E000E0D20DA6EDF501B6EFB0E2C
:100118000A6EFF0E0B6E4E500C6E0D6A0A500C26BE
:100128000B500D222B0E0C24D96E000E0D20DA6E0A
:10013800DF50126EFC0E0A6EFF0E0B6E4E500C6EE8
:100148000D6A0A500C260B500D222B0E0C24D96E6A
:10015800000E0D20DA6EDF500E6EFD0E0A6EFF0ED9
:100168000B6E4E500C6E0D6A0A500C260B500D2269
:100178002B0E0C24D96E000E0D20DA6EDF500F6E98
:10018800FE0E0A6EFF0E0B6E4E500C6E0D6A0A5074
:100198000C260B500D222B0E0C24D96E000E0D20B0
:1001A800DA6EDF50106EFF0E0A6EFF0E0B6E4E50A9
:1001B8000C6E0D6A0A500C260B500D222B0E0C24C7
:1001C800D96E000E0D20DA6EDF50116E000E4E6EE5
:1001D80012C001F00EC002F00FC003F010C004F00E
:1001E80011C005F01B507EEC0CF01B50D8A405D0B4
:1001F800000E4A6E010E496E2BD01B04D8A405D000
:10020800000E486E010E476E23D0020E1B18D8A4AC
:1002180005D0000E466E010E456E1AD0030E1B184F
:10022800D8A405D0000E446E010E436E11D0040E02
:100238001B18D8A405D0000E426E010E416E08D0DE
:10024800050E1B18D8A404D0000E406E010E3F6E98
:10025800000E4D6E000E3C6E000E3B6E020E3B18FB
:100268003C10D8A41200FF0E0A6EFF0E0B6E4E5003
:100278000C6E0D6A0A500C260B500D222B0E0C2406
:10028800D96E000E0D20DA6EDF50146E000E4E6E21
:100298001450D8A42ED08BB602D08B8601D08B9662
:1002A800000E166E000E156E16BE06D0165052E1E0
:1002B800320E155CD8B081D0000E016E15C002F068
:1002C8000A0E036E000E046E000E056E000E7EEC24
:1002D8000CF0010E016E15C002F00A0E036E000E3E
:1002E800046E000E056E010E7EEC0CF0154A162AFF
:1002F800DBD71404D8A42FD08BB602D08B8601D0BC
:100308008B96000E186E000E176E18BE06D0185089
:1003180054E1320E175CD8B050D0000E016E17C0F1
:1003280002F0000E036E0A0E046E000E056E000E3B
:100338007EEC0CF0010E016E17C002F0000E036E89
:100348000A0E046E000E056E010E7EEC0CF0174AC4
:10035800182ADBD732D0020E1418D8A436D08BB6A0
:1003680002D08B8601D08B96000E1A6E000E196E85
:100378001ABE06D01A5021E1320E195CD8B01DD031
:10038800000E016E19C002F0000E036E000E046E1E
:100398000A0E056E000E7EEC0CF0010E016E19C0FF
:1003A80002F0000E036E000E046E0A0E056E010EBA
:1003B8007EEC0CF0194A1A2ADBD7000E4A6E010EA1
:1003C800496E000E486E010E476E000E3C6E000E20
:1003D8003B6E12004E2A1200016E0150010D400EB4
:1003E800F324D96E050EF420DA6E0501DFAE03D0D2
:1003F80095EC0EF002D013EC0FF00150010D400EF9
:10040800F324D96E050EF420DA6E0501DFAC03D0B3
:1004180095EC0EF002D013EC0FF00150010D400ED8
:10042800F324D96E050EF420DA6E0501DFAA03D095
:1004380095EC0EF002D013EC0FF00150010D400EB8
:10044800F324D96E050EF420DA6E0501DFA803D077
:1004580095EC0EF002D013EC0FF00150010D400E98
:10046800F324D96E050EF420DA6E0501DFA603D059
:1004780095EC0EF002D013EC0FF00150010D400E78
:10048800F324D96E050EF420DA6E0501DFA403D03B
:1004980095EC0EF002D013EC0FF00150010D400E58
:1004A800F324D96E050EF420DA6E0501DFA203D01D
:1004B80095EC0EF002D013EC0FF00150010D400E38
:1004C800F324D96E050EF420DA6E0501DFA003D0FF
:1004D80095EC0EF002D013EC0FF00150010D800ED8
:1004E800F324D96E050EF420DA6E0501DFAE03D0D1
:1004F80095EC0EF002D013EC0FF00150010D800EB8
:10050800F324D96E050EF420DA6E0501DFAC03D0B2
:1005180095EC0EF002D013EC0FF00150010D800E97
:10052800F324D96E050EF420DA6E0501DFAA03D094
:1005380095EC0EF002D013EC0FF00150010D800E77
:10054800F324D96E050EF420DA6E0501DFA803D076
:1005580095EC0EF002D013EC0FF00150010D800E57
:10056800F324D96E050EF420DA6E0501DFA603D058
:1005780095EC0EF002D013EC0FF00150010D800E37
:10058800F324D96E050EF420DA6E0501DFA403D03A
:1005980095EC0EF002D013EC0FF00150010D800E17
:1005A800F324D96E050EF420DA6E0501DFA203D01C
:1005B80095EC0EF002D013EC0FF00150010D800EF7
:1005C800F324D96E050EF420DA6E0501DFA003D0FE
:1005D80095EC0EF002D013EC0FF00150010D000E57
:1005E800F324D96E050EF420DA6E0501DFAE03D0D0
:1005F80095EC0EF002D013EC0FF00150010D000E37
:10060800F324D96E050EF420DA6E0501DFAC03D0B1
:1006180095EC0EF002D013EC0FF00150010D000E16
:10062800F324D96E050EF420DA6E0501DFAA03D093
:1006380095EC0EF002D013EC0FF00150010D000EF6
:10064800F324D96E050EF420DA6E0501DFA803D075
:1006580095EC0EF002D013EC0FF00150010D000ED6
:10066800F324D96E050EF420DA6E0501DFA603D057
:1006780095EC0EF002D013EC0FF00150010D000EB6
:10068800F324D96E050EF420DA6E0501DFA403D039
:1006980095EC0EF002D013EC0FF00150010D000E96
:1006A800F324D96E050EF420DA6E0501DFA203D01B
:1006B80095EC0EF002D013EC0FF00150010D000E76
:1006C800F324D96E050EF420DA6E0501DFA003D0FD
:1006D80095EC0EF0120013EC0FF01200016E0150B1
:1006E800010D400EF324D96E040EF420DA6E0401D5
:1006F800DFAE03D0A7EC0EF002D022EC0FF00150D1
:10070800010D400EF324D96E040EF420DA6E0401B4
:10071800DFAC03D0A7EC0EF002D022EC0FF00150B2
:10072800010D400EF324D96E040EF420DA6E040194
:10073800DFAA03D0A7EC0EF002D022EC0FF0015094
:10074800010D400EF324D96E040EF420DA6E040174
:10075800DFA803D0A7EC0EF002D022EC0FF0015076
:10076800010D400EF324D96E040EF420DA6E040154
:10077800DFA603D0A7EC0EF002D022EC0FF0015058
:10078800010D400EF324D96E040EF420DA6E040134
:10079800DFA403D0A7EC0EF002D022EC0FF001503A
:1007A800010D400EF324D96E040EF420DA6E040114
:1007B800DFA203D0A7EC0EF002D022EC0FF001501C
:1007C800010D400EF324D96E040EF420DA6E0401F4
:1007D800DFA003D0A7EC0EF002D022EC0FF00150FE
:1007E800010D800EF324D96E040EF420DA6E040194
:1007F800DFAE03D0A7EC0EF002D022EC0FF00150D0
:10080800010D800EF324D96E040EF420DA6E040173
:10081800DFAC03D0A7EC0EF002D022EC0FF00150B1
:10082800010D800EF324D96E040EF420DA6E040153
:10083800DFAA03D0A7EC0EF002D022EC0FF0015093
:10084800010D800EF324D96E040EF420DA6E040133
:10085800DFA803D0A7EC0EF002D022EC0FF0015075
:10086800010D800EF324D96E040EF420DA6E040113
:10087800DFA603D0A7EC0EF002D022EC0FF0015057
:10088800010D800EF324D96E040EF420DA6E0401F3
:10089800DFA403D0A7EC0EF002D022EC0FF0015039
:1008A800010D800EF324D96E040EF420DA6E0401D3
:1008B800DFA203D0A7EC0EF002D022EC0FF001501B
:1008C800010D800EF324D96E040EF420DA6E0401B3
:1008D800DFA003D0A7EC0EF002D022EC0FF00150FD
:1008E800010D000EF324D96E040EF420DA6E040113
:1008F800DFAE03D0A7EC0EF002D022EC0FF00150CF
:10090800010D000EF324D96E040EF420DA6E0401F2
:10091800DFAC03D0A7EC0EF002D022EC0FF00150B0
:10092800010D000EF324D96E040EF420DA6E0401D2
:10093800DFAA03D0A7EC0EF002D022EC0FF0015092
:10094800010D000EF324D96E040EF420DA6E0401B2
:10095800DFA803D0A7EC0EF002D022EC0FF0015074
:10096800010D000EF324D96E040EF420DA6E040192
:10097800DFA603D0A7EC0EF002D022EC0FF0015056
:10098800010D000EF324D96E040EF420DA6E040172
:10099800DFA403D0A7EC0EF002D022EC0FF0015038
:1009A800010D000EF324D96E040EF420DA6E040152
:1009B800DFA203D0A7EC0EF002D022EC0FF001501A
:1009C800010D000EF324D96E040EF420DA6E040132
:1009D800DFA003D0A7EC0EF0120022EC0FF01200FB
:1009E800016E0150010D000EF324D96E030EF420A0
:1009F800DA6E0301DFAE03D0B9EC0EF002D031ECB1
:100A08000FF00150010D000EF324D96E030EF420EF
:100A1800DA6E0301DFAC03D0B9EC0EF002D031EC92
:100A28000FF00150010D000EF324D96E030EF420CF
:100A3800DA6E0301DFAA03D0B9EC0EF002D031EC74
:100A48000FF00150010D000EF324D96E030EF420AF
:100A5800DA6E0301DFA803D0B9EC0EF002D031EC56
:100A68000FF00150010D000EF324D96E030EF4208F
:100A7800DA6E0301DFA603D0B9EC0EF002D031EC38
:100A88000FF00150010D000EF324D96E030EF4206F
:100A9800DA6E0301DFA403D0B9EC0EF002D031EC1A
:100AA8000FF00150010D000EF324D96E030EF4204F
:100AB800DA6E0301DFA203D0B9EC0EF002D031ECFC
:100AC8000FF00150010D000EF324D96E030EF4202F
:100AD800DA6E0301DFA003D0B9EC0EF002D031ECDE
:100AE8000FF00150010D400EF324D96E030EF420CF
:100AF800DA6E0301DFAE03D0B9EC0EF002D031ECB0
:100B08000FF00150010D400EF324D96E030EF420AE
:100B1800DA6E0301DFAC03D0B9EC0EF002D031EC91
:100B28000FF00150010D400EF324D96E030EF4208E
:100B3800DA6E0301DFAA03D0B9EC0EF002D031EC73
:100B48000FF00150010D400EF324D96E030EF4206E
:100B5800DA6E0301DFA803D0B9EC0EF002D031EC55
:100B68000FF00150010D400EF324D96E030EF4204E
:100B7800DA6E0301DFA603D0B9EC0EF002D031EC37
:100B88000FF00150010D400EF324D96E030EF4202E
:100B9800DA6E0301DFA403D0B9EC0EF002D031EC19
:100BA8000FF00150010D400EF324D96E030EF4200E
:100BB800DA6E0301DFA203D0B9EC0EF002D031ECFB
:100BC8000FF00150010D400EF324D96E030EF420EE
:100BD800DA6E0301DFA003D0B9EC0EF002D031ECDD
:100BE8000FF00150010DC00EF324D96E040EF4204D
:100BF800DA6E0401DFAE03D0B9EC0EF002D031ECAE
:100C08000FF00150010DC00EF324D96E040EF4202C
:100C1800DA6E0401DFAC03D0B9EC0EF002D031EC8F
:100C28000FF00150010DC00EF324D96E040EF4200C
:100C3800DA6E0401DFAA03D0B9EC0EF002D031EC71
:100C48000FF00150010DC00EF324D96E040EF420EC
:100C5800DA6E0401DFA803D0B9EC0EF002D031EC53
:100C68000FF00150010DC00EF324D96E040EF420CC
:100C7800DA6E0401DFA603D0B9EC0EF002D031EC35
:100C88000FF00150010DC00EF324D96E040EF420AC
:100C9800DA6E0401DFA403D0B9EC0EF002D031EC17
:100CA8000FF00150010DC00EF324D96E040EF4208C
:100CB800DA6E0401DFA203D0B9EC0EF002D031ECF9
:100CC8000FF00150010DC00EF324D96E040EF4206C
:100CD800DA6E0401DFA003D0B9EC0EF0120031EC9B
:100CE8000FF01200016E0150010DC00EF324D96EF1
:100CF800030EF420DA6E0301DFAE03D0CBEC0EF066
:100D080002D040EC0FF00150010DC00EF324D96E53
:100D1800030EF420DA6E0301DFAC03D0CBEC0EF047
:100D280002D040EC0FF00150010DC00EF324D96E33
:100D3800030EF420DA6E0301DFAA03D0CBEC0EF029
:100D480002D040EC0FF00150010DC00EF324D96E13
:100D5800030EF420DA6E0301DFA803D0CBEC0EF00B
:100D680002D040EC0FF00150010DC00EF324D96EF3
:100D7800030EF420DA6E0301DFA603D0CBEC0EF0ED
:100D880002D040EC0FF00150010DC00EF324D96ED3
:100D9800030EF420DA6E0301DFA403D0CBEC0EF0CF
:100DA80002D040EC0FF00150010DC00EF324D96EB3
:100DB800030EF420DA6E0301DFA203D0CBEC0EF0B1
:100DC80002D040EC0FF00150010DC00EF324D96E93
:100DD800030EF420DA6E0301DFA003D0CBEC0EF093
:100DE80002D040EC0FF00150010D000EF324D96E33
:100DF800020EF420DA6E0201DFAE03D0CBEC0EF067
:100E080002D040EC0FF00150010D000EF324D96E12
:100E1800020EF420DA6E0201DFAC03D0CBEC0EF048
:100E280002D040EC0FF00150010D000EF324D96EF2
:100E3800020EF420DA6E0201DFAA03D0CBEC0EF02A
:100E480002D040EC0FF00150010D000EF324D96ED2
:100E5800020EF420DA6E0201DFA803D0CBEC0EF00C
:100E680002D040EC0FF00150010D000EF324D96EB2
:100E7800020EF420DA6E0201DFA603D0CBEC0EF0EE
:100E880002D040EC0FF00150010D000EF324D96E92
:100E9800020EF420DA6E0201DFA403D0CBEC0EF0D0
:100EA80002D040EC0FF00150010D000EF324D96E72
:100EB800020EF420DA6E0201DFA203D0CBEC0EF0B2
:100EC80002D040EC0FF00150010D000EF324D96E52
:100ED800020EF420DA6E0201DFA003D0CBEC0EF094
:100EE80002D040EC0FF00150010D800EF324D96EB2
:100EF800030EF420DA6E0301DFAE03D0CBEC0EF064
:100F080002D040EC0FF00150010D800EF324D96E91
:100F1800030EF420DA6E0301DFAC03D0CBEC0EF045
:100F280002D040EC0FF00150010D800EF324D96E71
:100F3800030EF420DA6E0301DFAA03D0CBEC0EF027
:100F480002D040EC0FF00150010D800EF324D96E51
:100F5800030EF420DA6E0301DFA803D0CBEC0EF009
:100F680002D040EC0FF00150010D800EF324D96E31
:100F7800030EF420DA6E0301DFA603D0CBEC0EF0EB
:100F880002D040EC0FF00150010D800EF324D96E11
:100F9800030EF420DA6E0301DFA403D0CBEC0EF0CD
:100FA80002D040EC0FF00150010D800EF324D96EF1
:100FB800030EF420DA6E0301DFA203D0CBEC0EF0AF
:100FC80002D040EC0FF00150010D800EF324D96ED1
:100FD800030EF420DA6E0301DFA003D0CBEC0EF091
:100FE800120040EC0FF01200016E0150010D800E4E
:100FF800F324D96E020EF420DA6E0201DFAC03D0BE
:10100800DDEC0EF002D04FEC0FF00150010D800E18
:10101800F324D96E020EF420DA6E0201DFAE03D09B
:10102800DDEC0EF002D04FEC0FF00150010D800EF8
:10103800F324D96E020EF420DA6E0201DFAA03D07F
:10104800DDEC0EF002D04FEC0FF00150010D800ED8
:10105800F324D96E020EF420DA6E0201DFA803D061
:10106800DDEC0EF002D04FEC0FF00150010D800EB8
:10107800F324D96E020EF420DA6E0201DFA603D043
:10108800DDEC0EF002D04FEC0FF00150010D800E98
:10109800F324D96E020EF420DA6E0201DFA403D025
:1010A800DDEC0EF002D04FEC0FF00150010D800E78
:1010B800F324D96E020EF420DA6E0201DFA203D007
:1010C800DDEC0EF002D04FEC0FF00150010D800E58
:1010D800F324D96E020EF420DA6E0201DFA003D0E9
:1010E800DDEC0EF002D04FEC0FF00150010DC00EF8
:1010F800F324D96E020EF420DA6E0201DFAE03D0BB
:10110800DDEC0EF002D04FEC0FF00150010DC00ED7
:10111800F324D96E020EF420DA6E0201DFAC03D09C
:10112800DDEC0EF002D04FEC0FF00150010DC00EB7
:10113800F324D96E020EF420DA6E0201DFAA03D07E
:10114800DDEC0EF002D04FEC0FF00150010DC00E97
:10115800F324D96E020EF420DA6E0201DFA803D060
:10116800DDEC0EF002D04FEC0FF00150010DC00E77
:10117800F324D96E020EF420DA6E0201DFA603D042
:10118800DDEC0EF002D04FEC0FF00150010DC00E57
:10119800F324D96E020EF420DA6E0201DFA403D024
:1011A800DDEC0EF002D04FEC0FF00150010DC00E37
:1011B800F324D96E020EF420DA6E0201DFA203D006
:1011C800DDEC0EF002D04FEC0FF00150010DC00E17
:1011D800F324D96E020EF420DA6E0201DFA003D0E8
:1011E800DDEC0EF002D04FEC0FF00150010D400E77
:1011F800F324D96E020EF420DA6E0201DFAE03D0BA
:10120800DDEC0EF002D04FEC0FF00150010D400E56
:10121800F324D96E020EF420DA6E0201DFAC03D09B
:10122800DDEC0EF002D04FEC0FF00150010D400E36
:10123800F324D96E020EF420DA6E0201DFAA03D07D
:10124800DDEC0EF002D04FEC0FF00150010D400E16
:10125800F324D96E020EF420DA6E0201DFA803D05F
:10126800DDEC0EF002D04FEC0FF00150010D400EF6
:10127800F324D96E020EF420DA6E0201DFA603D041
:10128800DDEC0EF002D04FEC0FF00150010D400ED6
:10129800F324D96E020EF420DA6E0201DFA403D023
:1012A800DDEC0EF002D04FEC0FF00150010D400EB6
:1012B800F324D96E020EF420DA6E0201DFA203D005
:1012C800DDEC0EF002D04FEC0FF00150010D400E96
:1012D800F324D96E020EF420DA6E0201DFA003D0E7
:1012E800DDEC0EF012004FEC0FF01200016E015011
:1012F800010D400EF324D96E010EF420DA6E0101BF
:10130800DFAE03D0EFEC0EF002D05EEC0FF0015030
:10131800010D400EF324D96E010EF420DA6E01019E
:10132800DFAC03D0EFEC0EF002D05EEC0FF0015012
:10133800010D400EF324D96E010EF420DA6E01017E
:10134800DFAA03D0EFEC0EF002D05EEC0FF00150F4
:10135800010D400EF324D96E010EF420DA6E01015E
:10136800DFA803D0EFEC0EF002D05EEC0FF00150D6
:10137800010D400EF324D96E010EF420DA6E01013E
:10138800DFA603D0EFEC0EF002D05EEC0FF00150B8
:10139800010D400EF324D96E010EF420DA6E01011E
:1013A800DFA403D0EFEC0EF002D05EEC0FF001509A
:1013B800010D400EF324D96E010EF420DA6E0101FE
:1013C800DFA203D0EFEC0EF002D05EEC0FF001507C
:1013D800010D400EF324D96E010EF420DA6E0101DE
:1013E800DFA003D0EFEC0EF002D05EEC0FF001505E
:1013F800010D800EF324D96E010EF420DA6E01017E
:10140800DFAE03D0EFEC0EF002D05EEC0FF001502F
:10141800010D800EF324D96E010EF420DA6E01015D
:10142800DFAC03D0EFEC0EF002D05EEC0FF0015011
:10143800010D800EF324D96E010EF420DA6E01013D
:10144800DFAA03D0EFEC0EF002D05EEC0FF00150F3
:10145800010D800EF324D96E010EF420DA6E01011D
:10146800DFA803D0EFEC0EF002D05EEC0FF00150D5
:10147800010D800EF324D96E010EF420DA6E0101FD
:10148800DFA603D0EFEC0EF002D05EEC0FF00150B7
:10149800010D800EF324D96E010EF420DA6E0101DD
:1014A800DFA403D0EFEC0EF002D05EEC0FF0015099
:1014B800010D800EF324D96E010EF420DA6E0101BD
:1014C800DFA203D0EFEC0EF002D05EEC0FF001507B
:1014D800010D800EF324D96E010EF420DA6E01019D
:1014E800DFA003D0EFEC0EF002D05EEC0FF001505D
:1014F800010D000EF324D96E010EF420DA6E0101FD
:10150800DFAE03D0EFEC0EF002D05EEC0FF001502E
:10151800010D000EF324D96E010EF420DA6E0101DC
:10152800DFAC03D0EFEC0EF002D05EEC0FF0015010
:10153800010D000EF324D96E010EF420DA6E0101BC
:10154800DFAA03D0EFEC0EF002D05EEC0FF00150F2
:10155800010D000EF324D96E010EF420DA6E01019C
:10156800DFA803D0EFEC0EF002D05EEC0FF00150D4
:10157800010D000EF324D96E010EF420DA6E01017C
:10158800DFA603D0EFEC0EF002D05EEC0FF00150B6
:10159800010D000EF324D96E010EF420DA6E01015C
:1015A800DFA403D0EFEC0EF002D05EEC0FF0015098
:1015B800010D000EF324D96E010EF420DA6E01013C
:1015C800DFA203D0EFEC0EF002D05EEC0FF001507A
:1015D800010D000EF324D96E010EF420DA6E01011C
:1015E800DFA003D0EFEC0EF012005EEC0FF012005B
:1015F800016E0150010D600EF324D96E000EF42027
:10160800DA6E0001DFAE03D001EC0FF002D06DEC12
:101618000FF00150010D600EF324D96E000EF42076
:10162800DA6E0001DFAC03D001EC0FF002D06DECF4
:101638000FF00150010D600EF324D96E000EF42056
:10164800DA6E0001DFAA03D001EC0FF002D06DECD6
:101658000FF00150010D600EF324D96E000EF42036
:10166800DA6E0001DFA803D001EC0FF002D06DECB8
:101678000FF00150010D600EF324D96E000EF42016
:10168800DA6E0001DFA603D001EC0FF002D06DEC9A
:101698000FF00150010D600EF324D96E000EF420F6
:1016A800DA6E0001DFA403D001EC0FF002D06DEC7C
:1016B8000FF00150010D600EF324D96E000EF420D6
:1016C800DA6E0001DFA203D001EC0FF002D06DEC5E
:1016D8000FF00150010D600EF324D96E000EF420B6
:1016E800DA6E0001DFA003D001EC0FF002D06DEC40
:1016F8000FF00150010DA00EF324D96E000EF42056
:10170800DA6E0001DFAE03D001EC0FF002D06DEC11
:101718000FF00150010DA00EF324D96E000EF42035
:10172800DA6E0001DFAC03D001EC0FF002D06DECF3
:101738000FF00150010DA00EF324D96E000EF42015
:10174800DA6E0001DFAA03D001EC0FF002D06DECD5
:101758000FF00150010DA00EF324D96E000EF420F5
:10176800DA6E0001DFA803D001EC0FF002D06DECB7
:101778000FF00150010DA00EF324D96E000EF420D5
:10178800DA6E0001DFA603D001EC0FF002D06DEC99
:101798000FF00150010DA00EF324D96E000EF420B5
:1017A800DA6E0001DFA403D001EC0FF002D06DEC7B
:1017B8000FF00150010DA00EF324D96E000EF42095
:1017C800DA6E0001DFA203D001EC0FF002D06DEC5D
:1017D8000FF00150010DA00EF324D96E000EF42075
:1017E800DA6E0001DFA003D001EC0FF002D06DEC3F
:1017F8000FF00150010DC00EF324D96E010EF42034
:10180800DA6E0101DFAE03D001EC0FF002D06DEC0F
:101818000FF00150010DC00EF324D96E010EF42013
:10182800DA6E0101DFAC03D001EC0FF002D06DECF1
:101838000FF00150010DC00EF324D96E010EF420F3
:10184800DA6E0101DFAA03D001EC0FF002D06DECD3
:101858000FF00150010DC00EF324D96E010EF420D3
:10186800DA6E0101DFA803D001EC0FF002D06DECB5
:101878000FF00150010DC00EF324D96E010EF420B3
:10188800DA6E0101DFA603D001EC0FF002D06DEC97
:101898000FF00150010DC00EF324D96E010EF42093
:1018A800DA6E0101DFA403D001EC0FF002D06DEC79
:1018B8000FF00150010DC00EF324D96E010EF42073
:1018C800DA6E0101DFA203D001EC0FF002D06DEC5B
:1018D8000FF00150010DC00EF324D96E010EF42053
:1018E800DA6E0101DFA003D001EC0FF012006DECFD
:1018F8000FF01200066E0150D8A407D004C007F0FC
:1019080003C008F005C009F009D00104D8A406D026
:1019180003C007F005C008F004C009F00650D8A4B9
:101928001FD00250010DA00EF324D96E000EF42032
:10193800DA6E07C0DFFF0250010D600EF324D96E86
:10194800000EF420DA6E08C0DFFF0250010DC00E51
:10195800F324D96E010EF420DA6E09C0DFFF1200FD
:101968000604D8A41FD00250010D800EF324D96EAE
:10197800010EF420DA6E07C0DFFF0250010D400EA1
:10198800F324D96E010EF420DA6E08C0DFFF02508E
:10199800010D000EF324D96E010EF420DA6E09C091
:1019A800DFFF1200020E0618D8A41FD00250010D46
:1019B800C00EF324D96E020EF420DA6E07C0DFFFE2
:1019C8000250010D800EF324D96E020EF420DA6E57
:1019D80008C0DFFF0250010D400EF324D96E020E3D
:1019E800F420DA6E09C0DFFF1200030E0618D8A42F
:1019F8001FD00250010D000EF324D96E020EF42000
:101A0800DA6E07C0DFFF0250010DC00EF324D96E55
:101A1800030EF420DA6E08C0DFFF0250010D800EBD
:101A2800F324D96E030EF420DA6E09C0DFFF12002A
:101A3800040E0618D8A41FD00250010D400EF3243E
:101A4800D96E030EF420DA6E07C0DFFF0250010DD5
:101A5800000EF324D96E030EF420DA6E08C0DFFFFF
:101A68000250010DC00EF324D96E040EF420DA6E74
:101A780009C0DFFF1200050E0618D8A41200025094
:101A8800010D800EF324D96E040EF420DA6E07C01F
:101A9800DFFF0250010D400EF324D96E040EF4202E
:101AA800DA6E08C0DFFF0250010D000EF324D96E74
:101AB800040EF420DA6E09C0DFFF120049044A1050
:101AC800D8A40FD0000E4E6E3F0E4E6401D005D044
:101AD8004E50FCEC0AF04E2AF7D7000E4A6E000E64
:101AE800496E47044810D8A40FD0000E4E6E3F0E22
:101AF8004E6401D005D04E507AEC09F04E2AF7D743
:101B0800000E486E000E476E45044610D8A40FD04C
:101B1800000E4E6E3F0E4E6401D005D04E50F8ECCC
:101B280007F04E2AF7D7000E466E000E456E4304A6
:101B38004410D8A40FD0000E4E6E3F0E4E6401D054
:101B480005D04E5076EC06F04E2AF7D7000E446EBC
:101B5800000E436E41044210D8A40FD0000E4E6E02
:101B68003F0E4E6401D005D04E50F4EC04F04E2ADE
:101B7800F7D7000E426E000E416E3F044010D8A405
:101B88000FD0000E4E6E3F0E4E6401D005D04E5061
:101B980072EC03F04E2AF7D7000E406E000E3F6E2F
:101BA8003D043E10D8A41200000E4E6E3F0E4E6447
:101BB80001D005D04E50F0EC01F04E2AF7D7000EB8
:101BC8003E6E000E3D6E1200960EF66E1F0EF76EFC
:101BD800000EF86E00EE4FF010EE09F00900F5CF98
:101BE800EEFFE550E150FAE105EE00F0C00EEE6AB6
:101BF800E806FDE104EE00F011EE00F0EE6AE550B3
:101C0800E150FCE1E250FAE103EE00F011EE00F0E1
:101C1800EE6AE550E150FCE1E250FAE102EE00F034
:101C280011EE00F0EE6AE550E150FCE1E250FAE115
:101C380001EE00F011EE00F0EE6AE550E150FCE133
:101C4800E250FAE100EE60F0800EEE6AE806FDE18F
:101C580000EE2BF0240EEE6AE806FDE1589058924B
:101C68000001ACEF0FF056BE09D0565003E1550401
:101C7800D8A004D05506D8A056061200000E566EFD
:101C8800210E556E62EC0DF054BE09D0545003E19C
:101C98005304D8A004D05306D8A054061200000E4E
:101CA800546E090E536EE0EC0FF052BE09D052503C
:101CB80003E15104D8A004D05106D8A0520612005E
:101CC800000E526E090E516EE1EC0FF050BE09D0B5
:101CD800505003E14F04D8A004D04F06D8A05006B6
:101CE8001200000E506E090E4F6EDFEC0FF012005E
:101CF800000E896E0B0E926E000E0F01386F000EEB
:101D08008A6E000E936E000E0F01396F000E616E21
:101D1800000E8B6E820E946E000E0F013A6FF18EDC
:101D280012008A8A00F000F000F000F000F000F0E5
:101D380000F000F000F000F000F000F000F000F01B
:101D480000F08A9A12008A8A00F000F000F000F091
:101D580000F000F000F000F000F000F000F000F0FB
:101D680000F000F000F08A9A12008A8800F000F073
:101D780000F000F000F000F000F000F000F000F0DB
:101D880000F000F000F000F000F08A9812008A8657
:101D980000F000F000F000F000F000F000F000F0BB
:101DA80000F000F000F000F000F000F000F08A967B
:101DB80012008A8400F000F000F000F000F000F05B
:101DC80000F000F000F000F000F000F000F000F08B
:101DD80000F08A9412008A8200F000F000F000F00F
:101DE80000F000F000F000F000F000F000F000F06B
:101DF80000F000F000F08A9212008A8000F000F0F3
:101E080000F000F000F000F000F000F000F000F04A
:101E180000F000F000F000F000F08A9012008A8ACA
:101E280000F000F000F000F000F000F08A9A00F0F6
:101E380000F000F000F000F000F012008A8A00F0D4
:101E480000F000F000F000F000F08A9A00F000F0D6
:101E580000F000F000F000F012008A8800F000F0B6
:101E680000F000F000F000F08A9800F000F000F0B8
:101E780000F000F000F012008A8600F000F000F098
:101E880000F000F000F08A9600F000F000F000F09A
:101E980000F000F012008A8400F000F000F000F07A
:101EA80000F000F08A9400F000F000F000F000F07C
:101EB80000F012008A8200F000F000F000F000F05C
:101EC80000F08A9200F000F000F000F000F000F05E
:101ED80012008A8000F000F000F000F000F000F03E
:101EE8008A9000F000F000F000F000F000F012001E
:101EF8009D9A9D98480EB86E900EAB6E260EAC6EED
:101F0800000EB06E890EAF6E9D8A1200000E1C6E18
:101F1800ABA202D0AB98AB88AECF1CF01C5058ECEB
:101F280000F01200B5EC0FF07CEC0EF0C6EC0FF0F0
:101F3800A1EC0FF07CEC0FF01200C00ED56E010E74
:101F4800D76E130ED66EF294F28ADAEC0FF0120006
:101F580096EC0FF0D4EC0FF0F28EF28CDEEC0FF072
:101F6800FFD7700ED36E040ED26E400E9B6ED2BE9B
:101F78001200FDD7F294010ED76E130ED66ED7EC71
:101F88000FF01200D09EF1949F9A9F9812000900BA
:071F9800090009000400012B
:101FA000016E01C0ADFF1200F288F18C120037EC17
:101FB0000EF01200D58E12009D981200FFD712006D
:041FC00012001200F9
:020000040020DA
:08000000FFFFFFFFFFFFFFFF00
:020000040030CA
:0E000000FF381F3CFFBF81FF0FC00FE00F4015
:00000001FF
