:0400000056EF00F0C7
:100008004C82FACF35F0FBCF36F0E9CF37F0EACFA4
:1000180038F0E1CF39F0E2CF3AF0D9CF3BF0DACF80
:100028003CF0F3CF3DF0F4CF3EF0F6CF3FF0F7CF02
:1000380040F0F8CF41F0F5CF42F0F2BAF2A403D085
:10004800B5EC03F010D09DBA9EAA03D081EC03F062
:100058000AD09DB89EA803D0CFEC03F004D0F2B824
:10006800F2A201D0F292F18442C0F5FF41C0F8FF3C
:1000780040C0F7FF3FC0F6FF3EC0F4FF3DC0F3FFAE
:100088003CC0DAFF3BC0D9FF3AC0E2FF39C0E1FF0C
:1000980038C0EAFF37C0E9FF36C0FBFF35C0FAFFBA
:1000A8004C921100FBEF02F02E6E2E50010D600EE7
:1000B800F324D96E000EF420DA6E0001DFAE03D00F
:1000C80052EC03F002D064EC03F02E50010D600EE8
:1000D800F324D96E000EF420DA6E0001DFAC03D0F1
:1000E80052EC03F002D064EC03F02E50010D600EC8
:1000F800F324D96E000EF420DA6E0001DFAA03D0D3
:1001080052EC03F002D064EC03F02E50010D600EA7
:10011800F324D96E000EF420DA6E0001DFA803D0B4
:1001280052EC03F002D064EC03F02E50010D600E87
:10013800F324D96E000EF420DA6E0001DFA603D096
:1001480052EC03F002D064EC03F02E50010D600E67
:10015800F324D96E000EF420DA6E0001DFA403D078
:1001680052EC03F002D064EC03F02E50010D600E47
:10017800F324D96E000EF420DA6E0001DFA203D05A
:1001880052EC03F002D064EC03F02E50010D600E27
:10019800F324D96E000EF420DA6E0001DFA003D03C
:1001A80052EC03F002D064EC03F02C50010D600E09
:1001B800F324D96E000EF420DA6E0001DFAE03D00E
:1001C80052EC03F002D064EC03F02C50010D600EE9
:1001D800F324D96E000EF420DA6E0001DFAC03D0F0
:1001E80052EC03F002D064EC03F02C50010D600EC9
:1001F800F324D96E000EF420DA6E0001DFAA03D0D2
:1002080052EC03F002D064EC03F02C50010D600EA8
:10021800F324D96E000EF420DA6E0001DFA803D0B3
:1002280052EC03F002D064EC03F02C50010D600E88
:10023800F324D96E000EF420DA6E0001DFA603D095
:1002480052EC03F002D064EC03F02C50010D600E68
:10025800F324D96E000EF420DA6E0001DFA403D077
:1002680052EC03F002D064EC03F02C50010D600E48
:10027800F324D96E000EF420DA6E0001DFA203D059
:1002880052EC03F002D064EC03F02C50010D600E28
:10029800F324D96E000EF420DA6E0001DFA003D03B
:1002A80052EC03F002D064EC03F02D50010D600E07
:1002B800F324D96E000EF420DA6E0001DFAE03D00D
:1002C80052EC03F002D064EC03F02D50010D600EE7
:1002D800F324D96E000EF420DA6E0001DFAC03D0EF
:1002E80052EC03F002D064EC03F02D50010D600EC7
:1002F800F324D96E000EF420DA6E0001DFAA03D0D1
:1003080052EC03F002D064EC03F02D50010D600EA6
:10031800F324D96E000EF420DA6E0001DFA803D0B2
:1003280052EC03F002D064EC03F02D50010D600E86
:10033800F324D96E000EF420DA6E0001DFA603D094
:1003480052EC03F002D064EC03F02D50010D600E66
:10035800F324D96E000EF420DA6E0001DFA403D076
:1003680052EC03F002D064EC03F02D50010D600E46
:10037800F324D96E000EF420DA6E0001DFA203D058
:1003880052EC03F002D064EC03F02D50010D600E26
:10039800F324D96E000EF420DA6E0001DFA003D03A
:1003A80052EC03F0120064EC03F01200336E1250AA
:1003B800010D000EF324D96E010EF420DA6E33C05D
:1003C800DFFF1250010D000EF324D96E010EF42048
:1003D800DA6EFE0EDE18D8A498D00E50D8A495D0A8
:1003E800FC0E2C6EFF0E2D6E12502E6E2F6A2C50A6
:1003F8002E262D502F22000E2E24D96E010E2F20CE
:10040800DA6E550EDE18D8A4B1D0FF0E2C6EFF0E92
:100418002D6E12502E6E2F6A2C502E262D502F2204
:10042800000E2E24D96E010E2F20DA6EDF500F6ECB
:10043800FE0E2C6EFF0E2D6E12502E6E2F6A2C5053
:100448002E262D502F22000E2E24D96E010E2F207D
:10045800DA6EDF50306E3050086E096AFD0E2C6E71
:10046800FF0E2D6E12502E6E2F6A2C502E262D50F8
:100478002F22000E2E24D96E010E2F20DA6EDF50A7
:10048800306E30500A6E0B6A0A500B10D8A403D095
:100498000FC023F035D00A040B10D8A403D00FC026
:1004A80022F02ED0020E0A180B10D8A403D00FC0C9
:1004B80021F026D0030E0A180B10D8A403D00FC0C1
:1004C80020F01ED0040E0A180B10D8A403D00FC0B9
:1004D8001FF016D0050E0A180B10D8A403D00FC0B1
:1004E8001EF00ED0060E0A180B10D8A403D00FC0A9
:1004F8001DF006D0070E0A180B10D8B40FC01CF058
:10050800010E0E6E000E116E31D00E50D8B42ED0E2
:100518001150010D600EF324D96E000EF420DA6E2E
:1005280033C0DFFF000E126EFE0E2C6EFF0E2D6E16
:100538000F502E6E2F6A2C502E262D502F22115020
:10054800306E316A2E50305C3150800A326E2F5036
:10055800800A3258D8A009D0000E0E6E000E126E16
:10056800000E116E010E296E01D0112A122A1200F6
:100578004ABE09D04A5003E14904D8A004D049062C
:10058800D8A04A061200000E4A6E210E496E3BECB6
:1005980003F048BE09D0485003E14704D8A004D06E
:1005A8004706D8A048061200000E486E090E476E8E
:1005B80046BE09D0465003E14504D8A004D04506FC
:1005C800D8A046061200000E466E090E456E44BEBF
:1005D80009D0445003E14304D8A004D04306D8A06E
:1005E80044061200000E446E090E436E1200840E7B
:1005F800F66E070EF76E000EF86E00EE43F010EE82
:1006080009F00900F5CFEEFFE550E150FAE101EEFF
:1006180000F0800EEE6AE806FDE100EE60F0800E64
:10062800EE6AE806FDE100EE01F02B0EEE6AE80640
:10063800FDE14C904C920001A3EF03F0000E896E8F
:100648000B0E926E000E0F01386F000E8A6E000EB0
:10065800936E000E0F01396F000E616E000E8B6EE7
:10066800820E946E000E0F013A6FF18E120029501F
:10067800D8B41200000E136E0AD013282C6E135033
:10068800020F2D6E135058EC00F0030E1326215064
:10069800135CD8A0F2D7000E296E12008A8200F0EF
:1006A80000F000F000F000F000F000F000F000F0C2
:1006B80000F000F000F000F000F000F08A92120064
:1006C8008A8200F000F000F000F000F000F08A925A
:1006D80000F000F000F000F000F000F012009D9A29
:1006E8009D98480EB86E900EAB6E260EAC6E000E3E
:1006F800B06E890EAF6E9D8A1200000E346EABA2EA
:1007080002D0AB98AB88AECF34F03450DAEC01F0BD
:100718001200ACEC03F022EC03F0BDEC03F098EC13
:1007280003F073EC03F01200C00ED56E010ED76E05
:10073800130ED66EF294F28ACDEC03F012008DEC13
:1007480003F0C7EC03F0F28EF28CD1EC03F0FFD784
:10075800700ED36E040ED26E400E9B6ED2BE120087
:10076800FDD7F294010ED76E130ED66ECAEC03F0C5
:100778001200D09EF1949F9A9F98120009000900D8
:0507880009000400015E
:10078E00F288F18C1200BCEC02F01200D58E120031
:06079E009D981200FFD738
:020000040020DA
:08000000FFFFFFFFFFFFFFFF00
:020000040030CA
:0E000000FF381F3CFFBF81FF0FC00FE00F4015
:00000001FF
