:0400000056EF00F0C7
:100008005D82FACF46F0FBCF47F0E9CF48F0EACF60
:1000180049F0E1CF4AF0E2CF4BF0D9CF4CF0DACF3C
:100028004DF0F3CF4EF0F4CF4FF0F6CF50F0F7CFBE
:1000380051F0F8CF52F0F5CF53F0F2BAF2A403D052
:10004800DEEC0DF010D09DBA9EAA03D0AAEC0DF0FC
:100058000AD09DB89EA803D0FCEC0DF004D0F2B8ED
:10006800F2A201D0F292F18453C0F5FF52C0F8FF1A
:1000780051C0F7FF50C0F6FF4FC0F4FF4EC0F3FF6A
:100088004DC0DAFF4CC0D9FF4BC0E2FF4AC0E1FFC8
:1000980049C0EAFF48C0E9FF47C0FBFF46C0FAFF76
:1000A8005D921100F2EF0BF03F6E3F50010D000E14
:1000B800F324D96E030EF420DA6E0301DFAE03D009
:1000C800B5EC0CF002D033EC0DF03F50010D000EF2
:1000D800F324D96E030EF420DA6E0301DFAC03D0EB
:1000E800B5EC0CF002D033EC0DF03F50010D000ED2
:1000F800F324D96E030EF420DA6E0301DFAA03D0CD
:10010800B5EC0CF002D033EC0DF03F50010D000EB1
:10011800F324D96E030EF420DA6E0301DFA803D0AE
:10012800B5EC0CF002D033EC0DF03F50010D000E91
:10013800F324D96E030EF420DA6E0301DFA603D090
:10014800B5EC0CF002D033EC0DF03F50010D000E71
:10015800F324D96E030EF420DA6E0301DFA403D072
:10016800B5EC0CF002D033EC0DF03F50010D000E51
:10017800F324D96E030EF420DA6E0301DFA203D054
:10018800B5EC0CF002D033EC0DF03F50010D000E31
:10019800F324D96E030EF420DA6E0301DFA003D036
:1001A800B5EC0CF002D033EC0DF03F50010D400ED1
:1001B800F324D96E030EF420DA6E0301DFAE03D008
:1001C800B5EC0CF002D033EC0DF03F50010D400EB1
:1001D800F324D96E030EF420DA6E0301DFAC03D0EA
:1001E800B5EC0CF002D033EC0DF03F50010D400E91
:1001F800F324D96E030EF420DA6E0301DFAA03D0CC
:10020800B5EC0CF002D033EC0DF03F50010D400E70
:10021800F324D96E030EF420DA6E0301DFA803D0AD
:10022800B5EC0CF002D033EC0DF03F50010D400E50
:10023800F324D96E030EF420DA6E0301DFA603D08F
:10024800B5EC0CF002D033EC0DF03F50010D400E30
:10025800F324D96E030EF420DA6E0301DFA403D071
:10026800B5EC0CF002D033EC0DF03F50010D400E10
:10027800F324D96E030EF420DA6E0301DFA203D053
:10028800B5EC0CF002D033EC0DF03F50010D400EF0
:10029800F324D96E030EF420DA6E0301DFA003D035
:1002A800B5EC0CF002D033EC0DF03F50010D800E90
:1002B800F324D96E040EF420DA6E0401DFAE03D005
:1002C800B5EC0CF002D033EC0DF03F50010D800E70
:1002D800F324D96E040EF420DA6E0401DFAC03D0E7
:1002E800B5EC0CF002D033EC0DF03F50010D800E50
:1002F800F324D96E040EF420DA6E0401DFAA03D0C9
:10030800B5EC0CF002D033EC0DF03F50010D800E2F
:10031800F324D96E040EF420DA6E0401DFA803D0AA
:10032800B5EC0CF002D033EC0DF03F50010D800E0F
:10033800F324D96E040EF420DA6E0401DFA603D08C
:10034800B5EC0CF002D033EC0DF03F50010D800EEF
:10035800F324D96E040EF420DA6E0401DFA403D06E
:10036800B5EC0CF002D033EC0DF03F50010D800ECF
:10037800F324D96E040EF420DA6E0401DFA203D050
:10038800B5EC0CF002D033EC0DF03F50010D800EAF
:10039800F324D96E040EF420DA6E0401DFA003D032
:1003A800B5EC0CF0120033EC0DF012003F6E3F502C
:1003B800010DC00EF324D96E030EF420DA6E03018A
:1003C800DFAE03D0C7EC0CF002D042EC0DF03F508A
:1003D800010DC00EF324D96E030EF420DA6E03016A
:1003E800DFAC03D0C7EC0CF002D042EC0DF03F506C
:1003F800010DC00EF324D96E030EF420DA6E03014A
:10040800DFAA03D0C7EC0CF002D042EC0DF03F504D
:10041800010DC00EF324D96E030EF420DA6E030129
:10042800DFA803D0C7EC0CF002D042EC0DF03F502F
:10043800010DC00EF324D96E030EF420DA6E030109
:10044800DFA603D0C7EC0CF002D042EC0DF03F5011
:10045800010DC00EF324D96E030EF420DA6E0301E9
:10046800DFA403D0C7EC0CF002D042EC0DF03F50F3
:10047800010DC00EF324D96E030EF420DA6E0301C9
:10048800DFA203D0C7EC0CF002D042EC0DF03F50D5
:10049800010DC00EF324D96E030EF420DA6E0301A9
:1004A800DFA003D0C7EC0CF002D042EC0DF03F50B7
:1004B800010D000EF324D96E020EF420DA6E02014B
:1004C800DFAE03D0C7EC0CF002D042EC0DF03F5089
:1004D800010D000EF324D96E020EF420DA6E02012B
:1004E800DFAC03D0C7EC0CF002D042EC0DF03F506B
:1004F800010D000EF324D96E020EF420DA6E02010B
:10050800DFAA03D0C7EC0CF002D042EC0DF03F504C
:10051800010D000EF324D96E020EF420DA6E0201EA
:10052800DFA803D0C7EC0CF002D042EC0DF03F502E
:10053800010D000EF324D96E020EF420DA6E0201CA
:10054800DFA603D0C7EC0CF002D042EC0DF03F5010
:10055800010D000EF324D96E020EF420DA6E0201AA
:10056800DFA403D0C7EC0CF002D042EC0DF03F50F2
:10057800010D000EF324D96E020EF420DA6E02018A
:10058800DFA203D0C7EC0CF002D042EC0DF03F50D4
:10059800010D000EF324D96E020EF420DA6E02016A
:1005A800DFA003D0C7EC0CF002D042EC0DF03F50B6
:1005B800010D800EF324D96E030EF420DA6E0301C8
:1005C800DFAE03D0C7EC0CF002D042EC0DF03F5088
:1005D800010D800EF324D96E030EF420DA6E0301A8
:1005E800DFAC03D0C7EC0CF002D042EC0DF03F506A
:1005F800010D800EF324D96E030EF420DA6E030188
:10060800DFAA03D0C7EC0CF002D042EC0DF03F504B
:10061800010D800EF324D96E030EF420DA6E030167
:10062800DFA803D0C7EC0CF002D042EC0DF03F502D
:10063800010D800EF324D96E030EF420DA6E030147
:10064800DFA603D0C7EC0CF002D042EC0DF03F500F
:10065800010D800EF324D96E030EF420DA6E030127
:10066800DFA403D0C7EC0CF002D042EC0DF03F50F1
:10067800010D800EF324D96E030EF420DA6E030107
:10068800DFA203D0C7EC0CF002D042EC0DF03F50D3
:10069800010D800EF324D96E030EF420DA6E0301E7
:1006A800DFA003D0C7EC0CF0120042EC0DF01200F2
:1006B8003F6E3F50010D800EF324D96E020EF420D8
:1006C800DA6E0201DFAE03D0D9EC0CF002D051ECA7
:1006D8000DF03F50010D800EF324D96E020EF42068
:1006E800DA6E0201DFAC03D0D9EC0CF002D051EC89
:1006F8000DF03F50010D800EF324D96E020EF42048
:10070800DA6E0201DFAA03D0D9EC0CF002D051EC6A
:100718000DF03F50010D800EF324D96E020EF42027
:10072800DA6E0201DFA803D0D9EC0CF002D051EC4C
:100738000DF03F50010D800EF324D96E020EF42007
:10074800DA6E0201DFA603D0D9EC0CF002D051EC2E
:100758000DF03F50010D800EF324D96E020EF420E7
:10076800DA6E0201DFA403D0D9EC0CF002D051EC10
:100778000DF03F50010D800EF324D96E020EF420C7
:10078800DA6E0201DFA203D0D9EC0CF002D051ECF2
:100798000DF03F50010D800EF324D96E020EF420A7
:1007A800DA6E0201DFA003D0D9EC0CF002D051ECD4
:1007B8000DF03F50010DC00EF324D96E020EF42047
:1007C800DA6E0201DFAE03D0D9EC0CF002D051ECA6
:1007D8000DF03F50010DC00EF324D96E020EF42027
:1007E800DA6E0201DFAC03D0D9EC0CF002D051EC88
:1007F8000DF03F50010DC00EF324D96E020EF42007
:10080800DA6E0201DFAA03D0D9EC0CF002D051EC69
:100818000DF03F50010DC00EF324D96E020EF420E6
:10082800DA6E0201DFA803D0D9EC0CF002D051EC4B
:100838000DF03F50010DC00EF324D96E020EF420C6
:10084800DA6E0201DFA603D0D9EC0CF002D051EC2D
:100858000DF03F50010DC00EF324D96E020EF420A6
:10086800DA6E0201DFA403D0D9EC0CF002D051EC0F
:100878000DF03F50010DC00EF324D96E020EF42086
:10088800DA6E0201DFA203D0D9EC0CF002D051ECF1
:100898000DF03F50010DC00EF324D96E020EF42066
:1008A800DA6E0201DFA003D0D9EC0CF002D051ECD3
:1008B8000DF03F50010D400EF324D96E020EF420C6
:1008C800DA6E0201DFAE03D0D9EC0CF002D051ECA5
:1008D8000DF03F50010D400EF324D96E020EF420A6
:1008E800DA6E0201DFAC03D0D9EC0CF002D051EC87
:1008F8000DF03F50010D400EF324D96E020EF42086
:10090800DA6E0201DFAA03D0D9EC0CF002D051EC68
:100918000DF03F50010D400EF324D96E020EF42065
:10092800DA6E0201DFA803D0D9EC0CF002D051EC4A
:100938000DF03F50010D400EF324D96E020EF42045
:10094800DA6E0201DFA603D0D9EC0CF002D051EC2C
:100958000DF03F50010D400EF324D96E020EF42025
:10096800DA6E0201DFA403D0D9EC0CF002D051EC0E
:100978000DF03F50010D400EF324D96E020EF42005
:10098800DA6E0201DFA203D0D9EC0CF002D051ECF0
:100998000DF03F50010D400EF324D96E020EF420E5
:1009A800DA6E0201DFA003D0D9EC0CF0120051EC92
:1009B8000DF012003F6E3F50010D400EF324D96E2A
:1009C800010EF420DA6E0101DFAE03D0EBEC0CF07F
:1009D80002D060EC0DF03F50010D400EF324D96EAB
:1009E800010EF420DA6E0101DFAC03D0EBEC0CF061
:1009F80002D060EC0DF03F50010D400EF324D96E8B
:100A0800010EF420DA6E0101DFAA03D0EBEC0CF042
:100A180002D060EC0DF03F50010D400EF324D96E6A
:100A2800010EF420DA6E0101DFA803D0EBEC0CF024
:100A380002D060EC0DF03F50010D400EF324D96E4A
:100A4800010EF420DA6E0101DFA603D0EBEC0CF006
:100A580002D060EC0DF03F50010D400EF324D96E2A
:100A6800010EF420DA6E0101DFA403D0EBEC0CF0E8
:100A780002D060EC0DF03F50010D400EF324D96E0A
:100A8800010EF420DA6E0101DFA203D0EBEC0CF0CA
:100A980002D060EC0DF03F50010D400EF324D96EEA
:100AA800010EF420DA6E0101DFA003D0EBEC0CF0AC
:100AB80002D060EC0DF03F50010D800EF324D96E8A
:100AC800010EF420DA6E0101DFAE03D0EBEC0CF07E
:100AD80002D060EC0DF03F50010D800EF324D96E6A
:100AE800010EF420DA6E0101DFAC03D0EBEC0CF060
:100AF80002D060EC0DF03F50010D800EF324D96E4A
:100B0800010EF420DA6E0101DFAA03D0EBEC0CF041
:100B180002D060EC0DF03F50010D800EF324D96E29
:100B2800010EF420DA6E0101DFA803D0EBEC0CF023
:100B380002D060EC0DF03F50010D800EF324D96E09
:100B4800010EF420DA6E0101DFA603D0EBEC0CF005
:100B580002D060EC0DF03F50010D800EF324D96EE9
:100B6800010EF420DA6E0101DFA403D0EBEC0CF0E7
:100B780002D060EC0DF03F50010D800EF324D96EC9
:100B8800010EF420DA6E0101DFA203D0EBEC0CF0C9
:100B980002D060EC0DF03F50010D800EF324D96EA9
:100BA800010EF420DA6E0101DFA003D0EBEC0CF0AB
:100BB80002D060EC0DF03F50010D000EF324D96E09
:100BC800010EF420DA6E0101DFAE03D0EBEC0CF07D
:100BD80002D060EC0DF03F50010D000EF324D96EE9
:100BE800010EF420DA6E0101DFAC03D0EBEC0CF05F
:100BF80002D060EC0DF03F50010D000EF324D96EC9
:100C0800010EF420DA6E0101DFAA03D0EBEC0CF040
:100C180002D060EC0DF03F50010D000EF324D96EA8
:100C2800010EF420DA6E0101DFA803D0EBEC0CF022
:100C380002D060EC0DF03F50010D000EF324D96E88
:100C4800010EF420DA6E0101DFA603D0EBEC0CF004
:100C580002D060EC0DF03F50010D000EF324D96E68
:100C6800010EF420DA6E0101DFA403D0EBEC0CF0E6
:100C780002D060EC0DF03F50010D000EF324D96E48
:100C8800010EF420DA6E0101DFA203D0EBEC0CF0C8
:100C980002D060EC0DF03F50010D000EF324D96E28
:100CA800010EF420DA6E0101DFA003D0EBEC0CF0AA
:100CB800120060EC0DF012003F6E3F50010D600E07
:100CC800F324D96E000EF420DA6E0001DFAC03D0F5
:100CD800FDEC0CF002D06FEC0DF03F50010D600EF2
:100CE800F324D96E000EF420DA6E0001DFAE03D0D3
:100CF800FDEC0CF002D06FEC0DF03F50010D600ED2
:100D0800F324D96E000EF420DA6E0001DFAA03D0B6
:100D1800FDEC0CF002D06FEC0DF03F50010D600EB1
:100D2800F324D96E000EF420DA6E0001DFA803D098
:100D3800FDEC0CF002D06FEC0DF03F50010D600E91
:100D4800F324D96E000EF420DA6E0001DFA603D07A
:100D5800FDEC0CF002D06FEC0DF03F50010D600E71
:100D6800F324D96E000EF420DA6E0001DFA403D05C
:100D7800FDEC0CF002D06FEC0DF03F50010D600E51
:100D8800F324D96E000EF420DA6E0001DFA203D03E
:100D9800FDEC0CF002D06FEC0DF03F50010D600E31
:100DA800F324D96E000EF420DA6E0001DFA003D020
:100DB800FDEC0CF002D06FEC0DF03F50010DA00ED1
:100DC800F324D96E000EF420DA6E0001DFAE03D0F2
:100DD800FDEC0CF002D06FEC0DF03F50010DA00EB1
:100DE800F324D96E000EF420DA6E0001DFAC03D0D4
:100DF800FDEC0CF002D06FEC0DF03F50010DA00E91
:100E0800F324D96E000EF420DA6E0001DFAA03D0B5
:100E1800FDEC0CF002D06FEC0DF03F50010DA00E70
:100E2800F324D96E000EF420DA6E0001DFA803D097
:100E3800FDEC0CF002D06FEC0DF03F50010DA00E50
:100E4800F324D96E000EF420DA6E0001DFA603D079
:100E5800FDEC0CF002D06FEC0DF03F50010DA00E30
:100E6800F324D96E000EF420DA6E0001DFA403D05B
:100E7800FDEC0CF002D06FEC0DF03F50010DA00E10
:100E8800F324D96E000EF420DA6E0001DFA203D03D
:100E9800FDEC0CF002D06FEC0DF03F50010DA00EF0
:100EA800F324D96E000EF420DA6E0001DFA003D01F
:100EB800FDEC0CF002D06FEC0DF03F50010DC00EB0
:100EC800F324D96E010EF420DA6E0101DFAE03D0EF
:100ED800FDEC0CF002D06FEC0DF03F50010DC00E90
:100EE800F324D96E010EF420DA6E0101DFAC03D0D1
:100EF800FDEC0CF002D06FEC0DF03F50010DC00E70
:100F0800F324D96E010EF420DA6E0101DFAA03D0B2
:100F1800FDEC0CF002D06FEC0DF03F50010DC00E4F
:100F2800F324D96E010EF420DA6E0101DFA803D094
:100F3800FDEC0CF002D06FEC0DF03F50010DC00E2F
:100F4800F324D96E010EF420DA6E0101DFA603D076
:100F5800FDEC0CF002D06FEC0DF03F50010DC00E0F
:100F6800F324D96E010EF420DA6E0101DFA403D058
:100F7800FDEC0CF002D06FEC0DF03F50010DC00EEF
:100F8800F324D96E010EF420DA6E0101DFA203D03A
:100F9800FDEC0CF002D06FEC0DF03F50010DC00ECF
:100FA800F324D96E010EF420DA6E0101DFA003D01C
:100FB800FDEC0CF012006FEC0DF012003F6E3F508C
:100FC800010DE70EF324D96E000EF420DA6E00014D
:100FD800DFAE03D00FEC0DF002D07EEC0DF03F50E9
:100FE800010DE70EF324D96E000EF420DA6E00012D
:100FF800DFAC03D00FEC0DF002D07EEC0DF03F50CB
:10100800010DE70EF324D96E000EF420DA6E00010C
:10101800DFAA03D00FEC0DF002D07EEC0DF03F50AC
:10102800010DE70EF324D96E000EF420DA6E0001EC
:10103800DFA803D00FEC0DF002D07EEC0DF03F508E
:10104800010DE70EF324D96E000EF420DA6E0001CC
:10105800DFA603D00FEC0DF002D07EEC0DF03F5070
:10106800010DE70EF324D96E000EF420DA6E0001AC
:10107800DFA403D00FEC0DF002D07EEC0DF03F5052
:10108800010DE70EF324D96E000EF420DA6E00018C
:10109800DFA203D00FEC0DF002D07EEC0DF03F5034
:1010A800010DE70EF324D96E000EF420DA6E00016C
:1010B800DFA003D00FEC0DF002D07EEC0DF03F5016
:1010C800010D010EF324D96E000EF420DA6EDFAEA6
:1010D80003D00FEC0DF002D07EEC0DF03F50010D67
:1010E800010EF324D96E000EF420DA6EDFAC03D0C3
:1010F8000FEC0DF002D07EEC0DF03F50010D010E0B
:10110800F324D96E000EF420DA6EDFAA03D00FECB8
:101118000DF002D07EEC0DF03F50010D010EF324CE
:10112800D96E000EF420DA6EDFA803D00FEC0DF0B4
:1011380002D07EEC0DF03F50010D010EF324D96E64
:10114800000EF420DA6EDFA603D00FEC0DF002D00B
:101158007EEC0DF03F50010D010EF324D96E000E08
:10116800F420DA6EDFA403D00FEC0DF002D07EEC91
:101178000DF03F50010D010EF324D96E000EF4203E
:10118800DA6EDFA203D00FEC0DF002D07EEC0DF08A
:101198003F50010D010EF324D96E000EF420DA6ED3
:1011A800DFA003D00FEC0DF002D07EEC0DF03F5025
:1011B800010DE00EF324D96E000EF420DA6E000162
:1011C800DFAE03D00FEC0DF002D07EEC0DF03F50F7
:1011D800010DE00EF324D96E000EF420DA6E000142
:1011E800DFAC03D00FEC0DF002D07EEC0DF03F50D9
:1011F800010DE00EF324D96E000EF420DA6E000122
:10120800DFAA03D00FEC0DF002D07EEC0DF03F50BA
:10121800010DE00EF324D96E000EF420DA6E000101
:10122800DFA803D00FEC0DF002D07EEC0DF03F509C
:10123800010DE00EF324D96E000EF420DA6E0001E1
:10124800DFA603D00FEC0DF002D07EEC0DF03F507E
:10125800010DE00EF324D96E000EF420DA6E0001C1
:10126800DFA403D00FEC0DF002D07EEC0DF03F5060
:10127800010DE00EF324D96E000EF420DA6E0001A1
:10128800DFA203D00FEC0DF002D07EEC0DF03F5042
:10129800010DE00EF324D96E000EF420DA6E000181
:1012A800DFA003D00FEC0DF012007EEC0DF0120061
:1012B8003F6E3F50010D0F0EF324D96E000EF4203F
:1012C800DA6EDFAE03D021EC0DF002D08DEC0DF01C
:1012D8003F50010D0F0EF324D96E000EF420DA6E84
:1012E800DFAC03D021EC0DF002D08DEC0DF03F50B7
:1012F800010D0F0EF324D96E000EF420DA6EDFAA6A
:1013080003D021EC0DF002D08DEC0DF03F50010D13
:101318000F0EF324D96E000EF420DA6EDFA803D086
:1013280021EC0DF002D08DEC0DF03F50010D0F0EA9
:10133800F324D96E000EF420DA6EDFA603D021EC78
:101348000DF002D08DEC0DF03F50010D0F0EF3247F
:10135800D96E000EF420DA6EDFA403D021EC0DF074
:1013680002D08DEC0DF03F50010D0F0EF324D96E15
:10137800000EF420DA6EDFA203D021EC0DF002D0CB
:101388008DEC0DF03F50010D0F0EF324D96E000EB9
:10139800F420DA6EDFA003D021EC0DF002D08DEC42
:1013A8000DF03F50010D160EF324D96E000EF420F7
:1013B800DA6EDFAE03D021EC0DF002D08DEC0DF02B
:1013C8003F50010D160EF324D96E000EF420DA6E8C
:1013D800DFAC03D021EC0DF002D08DEC0DF03F50C6
:1013E800010D160EF324D96E000EF420DA6EDFAA72
:1013F80003D021EC0DF002D08DEC0DF03F50010D23
:10140800160EF324D96E000EF420DA6EDFA803D08E
:1014180021EC0DF002D08DEC0DF03F50010D160EB1
:10142800F324D96E000EF420DA6EDFA603D021EC87
:101438000DF002D08DEC0DF03F50010D160EF32487
:10144800D96E000EF420DA6EDFA403D021EC0DF083
:1014580002D08DEC0DF03F50010D160EF324D96E1D
:10146800000EF420DA6EDFA203D021EC0DF002D0DA
:101478008DEC0DF03F50010D160EF324D96E000EC1
:10148800F420DA6EDFA003D021EC0DF002D08DEC51
:101498000DF03F50010D080EF324D96E000EF42014
:1014A800DA6EDFAE03D021EC0DF002D08DEC0DF03A
:1014B8003F50010D080EF324D96E000EF420DA6EA9
:1014C800DFAC03D021EC0DF002D08DEC0DF03F50D5
:1014D800010D080EF324D96E000EF420DA6EDFAA8F
:1014E80003D021EC0DF002D08DEC0DF03F50010D32
:1014F800080EF324D96E000EF420DA6EDFA803D0AC
:1015080021EC0DF002D08DEC0DF03F50010D080ECE
:10151800F324D96E000EF420DA6EDFA603D021EC96
:101528000DF002D08DEC0DF03F50010D080EF324A4
:10153800D96E000EF420DA6EDFA403D021EC0DF092
:1015480002D08DEC0DF03F50010D080EF324D96E3A
:10155800000EF420DA6EDFA203D021EC0DF002D0E9
:101568008DEC0DF03F50010D080EF324D96E000EDE
:10157800F420DA6EDFA003D021EC0DF012008DEC20
:101588000DF01200446E3B50D8B41ED0EE0E1F244E
:10159800D96E000E2020DA6E44C0DFFF21501D5C9A
:1015A8001E50800A3F6E2250800A3F58D8B00CD097
:1015B800000E3B6E000E226E000E216E000E206E95
:1015C800000E1F6E010E3C6E000E2124D96E040E13
:1015D8002220DA6E44C0DFFF000E2124D96E040EEB
:1015E8002220DA6EFE0EDE18D8A46DD03B50D8A4A7
:1015F8006AD0FC0E3F6EFF0E406E21C041F022C043
:1016080042F03F50412640504222000E4124D96EFC
:10161800040E4220DA6E550EDE18D8A41200FF0E12
:101628003F6EFF0E406E21C041F022C042F03F5095
:10163800412640504222000E4124D96E040E422019
:10164800DA6EDF50436E43501D6E1E6A1DC025F0D2
:101658001EC026F0FE0E3F6EFF0E406E21C041F008
:1016680022C042F03F50412640504222000E412401
:10167800D96E040E4220DA6EDF50436E4350276E57
:10168800286AFD0E3F6EFF0E406E21C041F022C059
:1016980042F03F50412640504222000E4124D96E6C
:1016A800040E4220DA6EDF50436E4350296E2A6AD8
:1016B800010E3B6E000E226E020E216E000E206E91
:1016C800000E1F6E1200214A222A1F4A202A1200E9
:1016D80037043810D8A40FD0000E3E6E060E3E64B4
:1016E80001D005D03E505CEC09F03E2AF7D7000E39
:1016F800386E000E376E35043610D8A40FD0000EA1
:101708003E6E060E3E6401D005D03E50E2EC07F076
:101718003E2AF7D7000E366E000E356E33043410AD
:10172800D8A40FD0000E3E6E3F0E3E6401D005D007
:101738003E5060EC06F03E2AF7D7000E346E000EDD
:10174800336E31043210D8A40FD0000E3E6E3F0E17
:101758003E6401D005D03E50DEEC04F03E2AF7D7B7
:10176800000E326E000E316E2F043010D8A40FD048
:10177800000E3E6E3F0E3E6401D005D03E505CEC3C
:1017880003F03E2AF7D7000E306E000E2F6E2D04A0
:101798002E10D8A40FD0000E3E6E3F0E3E6401D02E
:1017A80005D03E50DAEC01F03E2AF7D7000E2E6E37
:1017B800000E2D6E2B042C10D8A41200000E3E6EC5
:1017C8003F0E3E6401D005D03E5058EC00F03E2A52
:1017D800F7D7000E2C6E000E2B6E1200D60EF66E8A
:1017E8001B0EF76E000EF86E00EE54F010EE09F0C6
:1017F8000900F5CFEEFFE550E150FAE104EE00F004
:10180800C00EEE6AE806FDE103EE00F011EE00F00E
:10181800EE6AE550E150FCE1E250FAE102EE00F038
:1018280011EE00F0EE6AE550E150FCE1E250FAE119
:1018380001EE00F011EE00F0EE6AE550E150FCE137
:10184800E250FAE100EE60F0950EEE6AE806FDE17E
:1018580000EE01F03E0EEE6AE806FDE15D905D9255
:101868000001CCEF0DF05BBE09D05B5003E15A04D8
:10187800D8A004D05A06D8A05B061200000E5B6EF2
:10188800210E5A6E6CEC0BF059BE09D0595003E189
:101898005804D8A004D05806D8A059061200000E43
:1018A800596E090E586E7CEC0CF057BE09D0575093
:1018B80003E15604D8A004D05606D8A05706120053
:1018C800000E576E090E566E00EC0EF055BE09D08C
:1018D800555003E15404D8A004D05406D8A05506A6
:1018E8001200000E556E090E546EFFEC0DF012003A
:1018F8003C50D8B412002550235C2450800A406E16
:101908002650800A4058D8B00CD0EE0E2324D96E49
:10191800000E2420DA6EDF50F0EC0DF0234A242A62
:101928001200000E246E000E236E000E3C6E120094
:10193800000E896E0B0E926E000E0F01386F000EAE
:101948008A6E000E936E000E0F01396F000E616EE5
:10195800000E8B6E820E946E000E0F013A6FF18EA0
:1019680012008A8A00F000F000F000F000F000F0A9
:1019780000F000F000F000F000F000F000F000F0DF
:1019880000F08A9A12008A8A00F000F000F000F055
:1019980000F000F000F000F000F000F000F000F0BF
:1019A80000F000F000F08A9A12008A8800F000F037
:1019B80000F000F000F000F000F000F000F000F09F
:1019C80000F000F000F000F000F08A9812008A861B
:1019D80000F000F000F000F000F000F000F000F07F
:1019E80000F000F000F000F000F000F000F08A963F
:1019F80012008A8400F000F000F000F000F000F01F
:101A080000F000F000F000F000F000F000F000F04E
:101A180000F08A9412008A8200F000F000F000F0D2
:101A280000F000F000F000F000F000F000F000F02E
:101A380000F000F000F08A9212008A8000F000F0B6
:101A480000F000F000F000F000F000F000F000F00E
:101A580000F000F000F000F000F08A9012008A8A8E
:101A680000F000F000F000F000F000F08A9A00F0BA
:101A780000F000F000F000F000F012008A8A00F098
:101A880000F000F000F000F000F08A9A00F000F09A
:101A980000F000F000F000F012008A8800F000F07A
:101AA80000F000F000F000F08A9800F000F000F07C
:101AB80000F000F000F012008A8600F000F000F05C
:101AC80000F000F000F08A9600F000F000F000F05E
:101AD80000F000F012008A8400F000F000F000F03E
:101AE80000F000F08A9400F000F000F000F000F040
:101AF80000F012008A8200F000F000F000F000F020
:101B080000F08A9200F000F000F000F000F000F021
:101B180012008A8000F000F000F000F000F000F001
:101B28008A9000F000F000F000F000F000F01200E1
:101B38009D9A9D98480EB86E900EAB6E260EAC6EB0
:101B4800000EB06E890EAF6E9D8A1200000E456EB3
:101B5800ABA202D0AB98AB88AECF45F04550C6ECEF
:101B68000AF01200D5EC0DF09CEC0CF0E6EC0DF050
:101B7800C1EC0DF09CEC0DF01200C00ED56E010EFC
:101B8800D76E130ED66EF294F28AFAEC0DF01200AC
:101B9800B6EC0DF0F4EC0DF0F28EF28CFEEC0DF0DC
:101BA800FFD7700ED36E040ED26E400E9B6ED2BE5F
:101BB8001200FDD7F294010ED76E130ED66EF7EC15
:101BC8000DF01200D09EF1949F9A9F981200090080
:071BD80009000900040001EF
:101BE0003F6E3FC0ADFF1200F288F18C120037EC5F
:101BF0000CF01200D58E12009D981200FFD7120033
:021C00001200D0
:020000040020DA
:08000000FFFFFFFFFFFFFFFF00
:020000040030CA
:0E000000FF381F3CFFBF81FF0FC00FE00F4015
:00000001FF
