:0400000056EF00F0C7
:100008003982FACF23F0FBCF24F0E9CF25F0EACFED
:1000180026F0E1CF27F0E2CF28F0D9CF29F0DACFC8
:100028002AF0F3CF2BF0F4CF2CF0F6CF2DF0F7CF4A
:100038002EF0F8CF2FF0F5CF30F0F2BAF2A403D0BB
:100048009FEC0EF010D09DBA9EAA03D06BEC0EF078
:100058000AD09DB89EA803D0B8EC0EF004D0F2B830
:10006800F2A201D0F292F18430C0F5FF2FC0F8FF60
:100078002EC0F7FF2DC0F6FF2CC0F4FF2BC0F3FFF6
:100088002AC0DAFF29C0D9FF28C0E2FF27C0E1FF54
:1000980026C0EAFF25C0E9FF24C0FBFF23C0FAFF02
:1000A800399211002CEF0DF01C6E1C50010D000E42
:1000B800F324D96E020EF420DA6E0201DFAE03D00B
:1000C80076EC0DF002D0F4EC0DF01C50010D000E92
:1000D800F324D96E020EF420DA6E0201DFAC03D0ED
:1000E80076EC0DF002D0F4EC0DF01C50010D000E72
:1000F800F324D96E020EF420DA6E0201DFAA03D0CF
:1001080076EC0DF002D0F4EC0DF01C50010D000E51
:10011800F324D96E020EF420DA6E0201DFA803D0B0
:1001280076EC0DF002D0F4EC0DF01C50010D000E31
:10013800F324D96E020EF420DA6E0201DFA603D092
:1001480076EC0DF002D0F4EC0DF01C50010D000E11
:10015800F324D96E020EF420DA6E0201DFA403D074
:1001680076EC0DF002D0F4EC0DF01C50010D000EF1
:10017800F324D96E020EF420DA6E0201DFA203D056
:1001880076EC0DF002D0F4EC0DF01C50010D000ED1
:10019800F324D96E020EF420DA6E0201DFA003D038
:1001A80076EC0DF002D0F4EC0DF01A50010D000EB3
:1001B800F324D96E020EF420DA6E0201DFAE03D00A
:1001C80076EC0DF002D0F4EC0DF01A50010D000E93
:1001D800F324D96E020EF420DA6E0201DFAC03D0EC
:1001E80076EC0DF002D0F4EC0DF01A50010D000E73
:1001F800F324D96E020EF420DA6E0201DFAA03D0CE
:1002080076EC0DF002D0F4EC0DF01A50010D000E52
:10021800F324D96E020EF420DA6E0201DFA803D0AF
:1002280076EC0DF002D0F4EC0DF01A50010D000E32
:10023800F324D96E020EF420DA6E0201DFA603D091
:1002480076EC0DF002D0F4EC0DF01A50010D000E12
:10025800F324D96E020EF420DA6E0201DFA403D073
:1002680076EC0DF002D0F4EC0DF01A50010D000EF2
:10027800F324D96E020EF420DA6E0201DFA203D055
:1002880076EC0DF002D0F4EC0DF01A50010D000ED2
:10029800F324D96E020EF420DA6E0201DFA003D037
:1002A80076EC0DF002D0F4EC0DF01B50010D000EB1
:1002B800F324D96E020EF420DA6E0201DFAE03D009
:1002C80076EC0DF002D0F4EC0DF01B50010D000E91
:1002D800F324D96E020EF420DA6E0201DFAC03D0EB
:1002E80076EC0DF002D0F4EC0DF01B50010D000E71
:1002F800F324D96E020EF420DA6E0201DFAA03D0CD
:1003080076EC0DF002D0F4EC0DF01B50010D000E50
:10031800F324D96E020EF420DA6E0201DFA803D0AE
:1003280076EC0DF002D0F4EC0DF01B50010D000E30
:10033800F324D96E020EF420DA6E0201DFA603D090
:1003480076EC0DF002D0F4EC0DF01B50010D000E10
:10035800F324D96E020EF420DA6E0201DFA403D072
:1003680076EC0DF002D0F4EC0DF01B50010D000EF0
:10037800F324D96E020EF420DA6E0201DFA203D054
:1003880076EC0DF002D0F4EC0DF01B50010D000ED0
:10039800F324D96E020EF420DA6E0201DFA003D036
:1003A80076EC0DF01200F4EC0DF012001C6E1C50EF
:1003B800010D000EF324D96E010EF420DA6E01014E
:1003C800DFAE03D088EC0DF002D003EC0EF01C5029
:1003D800010D000EF324D96E010EF420DA6E01012E
:1003E800DFAC03D088EC0DF002D003EC0EF01C500B
:1003F800010D000EF324D96E010EF420DA6E01010E
:10040800DFAA03D088EC0DF002D003EC0EF01C50EC
:10041800010D000EF324D96E010EF420DA6E0101ED
:10042800DFA803D088EC0DF002D003EC0EF01C50CE
:10043800010D000EF324D96E010EF420DA6E0101CD
:10044800DFA603D088EC0DF002D003EC0EF01C50B0
:10045800010D000EF324D96E010EF420DA6E0101AD
:10046800DFA403D088EC0DF002D003EC0EF01C5092
:10047800010D000EF324D96E010EF420DA6E01018D
:10048800DFA203D088EC0DF002D003EC0EF01C5074
:10049800010D000EF324D96E010EF420DA6E01016D
:1004A800DFA003D088EC0DF002D003EC0EF01A5058
:1004B800010D000EF324D96E010EF420DA6E01014D
:1004C800DFAE03D088EC0DF002D003EC0EF01A502A
:1004D800010D000EF324D96E010EF420DA6E01012D
:1004E800DFAC03D088EC0DF002D003EC0EF01A500C
:1004F800010D000EF324D96E010EF420DA6E01010D
:10050800DFAA03D088EC0DF002D003EC0EF01A50ED
:10051800010D000EF324D96E010EF420DA6E0101EC
:10052800DFA803D088EC0DF002D003EC0EF01A50CF
:10053800010D000EF324D96E010EF420DA6E0101CC
:10054800DFA603D088EC0DF002D003EC0EF01A50B1
:10055800010D000EF324D96E010EF420DA6E0101AC
:10056800DFA403D088EC0DF002D003EC0EF01A5093
:10057800010D000EF324D96E010EF420DA6E01018C
:10058800DFA203D088EC0DF002D003EC0EF01A5075
:10059800010D000EF324D96E010EF420DA6E01016C
:1005A800DFA003D088EC0DF002D003EC0EF01B5056
:1005B800010D000EF324D96E010EF420DA6E01014C
:1005C800DFAE03D088EC0DF002D003EC0EF01B5028
:1005D800010D000EF324D96E010EF420DA6E01012C
:1005E800DFAC03D088EC0DF002D003EC0EF01B500A
:1005F800010D000EF324D96E010EF420DA6E01010C
:10060800DFAA03D088EC0DF002D003EC0EF01B50EB
:10061800010D000EF324D96E010EF420DA6E0101EB
:10062800DFA803D088EC0DF002D003EC0EF01B50CD
:10063800010D000EF324D96E010EF420DA6E0101CB
:10064800DFA603D088EC0DF002D003EC0EF01B50AF
:10065800010D000EF324D96E010EF420DA6E0101AB
:10066800DFA403D088EC0DF002D003EC0EF01B5091
:10067800010D000EF324D96E010EF420DA6E01018B
:10068800DFA203D088EC0DF002D003EC0EF01B5073
:10069800010D000EF324D96E010EF420DA6E01016B
:1006A800DFA003D088EC0DF0120003EC0EF012006E
:1006B8001C6E1C50010D400EF324D96E010EF4205F
:1006C800DA6E0101DFAE03D09AEC0DF002D012EC25
:1006D8000EF01C50010D400EF324D96E010EF420CB
:1006E800DA6E0101DFAC03D09AEC0DF002D012EC07
:1006F8000EF01C50010D400EF324D96E010EF420AB
:10070800DA6E0101DFAA03D09AEC0DF002D012ECE8
:100718000EF01C50010D400EF324D96E010EF4208A
:10072800DA6E0101DFA803D09AEC0DF002D012ECCA
:100738000EF01C50010D400EF324D96E010EF4206A
:10074800DA6E0101DFA603D09AEC0DF002D012ECAC
:100758000EF01C50010D400EF324D96E010EF4204A
:10076800DA6E0101DFA403D09AEC0DF002D012EC8E
:100778000EF01C50010D400EF324D96E010EF4202A
:10078800DA6E0101DFA203D09AEC0DF002D012EC70
:100798000EF01C50010D400EF324D96E010EF4200A
:1007A800DA6E0101DFA003D09AEC0DF002D012EC52
:1007B8000EF01A50010D400EF324D96E010EF420EC
:1007C800DA6E0101DFAE03D09AEC0DF002D012EC24
:1007D8000EF01A50010D400EF324D96E010EF420CC
:1007E800DA6E0101DFAC03D09AEC0DF002D012EC06
:1007F8000EF01A50010D400EF324D96E010EF420AC
:10080800DA6E0101DFAA03D09AEC0DF002D012ECE7
:100818000EF01A50010D400EF324D96E010EF4208B
:10082800DA6E0101DFA803D09AEC0DF002D012ECC9
:100838000EF01A50010D400EF324D96E010EF4206B
:10084800DA6E0101DFA603D09AEC0DF002D012ECAB
:100858000EF01A50010D400EF324D96E010EF4204B
:10086800DA6E0101DFA403D09AEC0DF002D012EC8D
:100878000EF01A50010D400EF324D96E010EF4202B
:10088800DA6E0101DFA203D09AEC0DF002D012EC6F
:100898000EF01A50010D400EF324D96E010EF4200B
:1008A800DA6E0101DFA003D09AEC0DF002D012EC51
:1008B8000EF01B50010D400EF324D96E010EF420EA
:1008C800DA6E0101DFAE03D09AEC0DF002D012EC23
:1008D8000EF01B50010D400EF324D96E010EF420CA
:1008E800DA6E0101DFAC03D09AEC0DF002D012EC05
:1008F8000EF01B50010D400EF324D96E010EF420AA
:10090800DA6E0101DFAA03D09AEC0DF002D012ECE6
:100918000EF01B50010D400EF324D96E010EF42089
:10092800DA6E0101DFA803D09AEC0DF002D012ECC8
:100938000EF01B50010D400EF324D96E010EF42069
:10094800DA6E0101DFA603D09AEC0DF002D012ECAA
:100958000EF01B50010D400EF324D96E010EF42049
:10096800DA6E0101DFA403D09AEC0DF002D012EC8C
:100978000EF01B50010D400EF324D96E010EF42029
:10098800DA6E0101DFA203D09AEC0DF002D012EC6E
:100998000EF01B50010D400EF324D96E010EF42009
:1009A800DA6E0101DFA003D09AEC0DF0120012EC10
:1009B8000EF012001C6E1C50010D800EF324D96E2F
:1009C800010EF420DA6E0101DFAE03D0ACEC0DF0BD
:1009D80002D021EC0EF01C50010D800EF324D96ECC
:1009E800010EF420DA6E0101DFAC03D0ACEC0DF09F
:1009F80002D021EC0EF01C50010D800EF324D96EAC
:100A0800010EF420DA6E0101DFAA03D0ACEC0DF080
:100A180002D021EC0EF01C50010D800EF324D96E8B
:100A2800010EF420DA6E0101DFA803D0ACEC0DF062
:100A380002D021EC0EF01C50010D800EF324D96E6B
:100A4800010EF420DA6E0101DFA603D0ACEC0DF044
:100A580002D021EC0EF01C50010D800EF324D96E4B
:100A6800010EF420DA6E0101DFA403D0ACEC0DF026
:100A780002D021EC0EF01C50010D800EF324D96E2B
:100A8800010EF420DA6E0101DFA203D0ACEC0DF008
:100A980002D021EC0EF01C50010D800EF324D96E0B
:100AA800010EF420DA6E0101DFA003D0ACEC0DF0EA
:100AB80002D021EC0EF01A50010D800EF324D96EED
:100AC800010EF420DA6E0101DFAE03D0ACEC0DF0BC
:100AD80002D021EC0EF01A50010D800EF324D96ECD
:100AE800010EF420DA6E0101DFAC03D0ACEC0DF09E
:100AF80002D021EC0EF01A50010D800EF324D96EAD
:100B0800010EF420DA6E0101DFAA03D0ACEC0DF07F
:100B180002D021EC0EF01A50010D800EF324D96E8C
:100B2800010EF420DA6E0101DFA803D0ACEC0DF061
:100B380002D021EC0EF01A50010D800EF324D96E6C
:100B4800010EF420DA6E0101DFA603D0ACEC0DF043
:100B580002D021EC0EF01A50010D800EF324D96E4C
:100B6800010EF420DA6E0101DFA403D0ACEC0DF025
:100B780002D021EC0EF01A50010D800EF324D96E2C
:100B8800010EF420DA6E0101DFA203D0ACEC0DF007
:100B980002D021EC0EF01A50010D800EF324D96E0C
:100BA800010EF420DA6E0101DFA003D0ACEC0DF0E9
:100BB80002D021EC0EF01B50010D800EF324D96EEB
:100BC800010EF420DA6E0101DFAE03D0ACEC0DF0BB
:100BD80002D021EC0EF01B50010D800EF324D96ECB
:100BE800010EF420DA6E0101DFAC03D0ACEC0DF09D
:100BF80002D021EC0EF01B50010D800EF324D96EAB
:100C0800010EF420DA6E0101DFAA03D0ACEC0DF07E
:100C180002D021EC0EF01B50010D800EF324D96E8A
:100C2800010EF420DA6E0101DFA803D0ACEC0DF060
:100C380002D021EC0EF01B50010D800EF324D96E6A
:100C4800010EF420DA6E0101DFA603D0ACEC0DF042
:100C580002D021EC0EF01B50010D800EF324D96E4A
:100C6800010EF420DA6E0101DFA403D0ACEC0DF024
:100C780002D021EC0EF01B50010D800EF324D96E2A
:100C8800010EF420DA6E0101DFA203D0ACEC0DF006
:100C980002D021EC0EF01B50010D800EF324D96E0A
:100CA800010EF420DA6E0101DFA003D0ACEC0DF0E8
:100CB800120021EC0EF012001C6E1C50010DC00E2B
:100CC800F324D96E010EF420DA6E0101DFAE03D0F1
:100CD800BEEC0DF002D030EC0EF01C50010DC00E31
:100CE800F324D96E010EF420DA6E0101DFAC03D0D3
:100CF800BEEC0DF002D030EC0EF01C50010DC00E11
:100D0800F324D96E010EF420DA6E0101DFAA03D0B4
:100D1800BEEC0DF002D030EC0EF01C50010DC00EF0
:100D2800F324D96E010EF420DA6E0101DFA803D096
:100D3800BEEC0DF002D030EC0EF01C50010DC00ED0
:100D4800F324D96E010EF420DA6E0101DFA603D078
:100D5800BEEC0DF002D030EC0EF01C50010DC00EB0
:100D6800F324D96E010EF420DA6E0101DFA403D05A
:100D7800BEEC0DF002D030EC0EF01C50010DC00E90
:100D8800F324D96E010EF420DA6E0101DFA203D03C
:100D9800BEEC0DF002D030EC0EF01C50010DC00E70
:100DA800F324D96E010EF420DA6E0101DFA003D01E
:100DB800BEEC0DF002D030EC0EF01A50010DC00E52
:100DC800F324D96E010EF420DA6E0101DFAE03D0F0
:100DD800BEEC0DF002D030EC0EF01A50010DC00E32
:100DE800F324D96E010EF420DA6E0101DFAC03D0D2
:100DF800BEEC0DF002D030EC0EF01A50010DC00E12
:100E0800F324D96E010EF420DA6E0101DFAA03D0B3
:100E1800BEEC0DF002D030EC0EF01A50010DC00EF1
:100E2800F324D96E010EF420DA6E0101DFA803D095
:100E3800BEEC0DF002D030EC0EF01A50010DC00ED1
:100E4800F324D96E010EF420DA6E0101DFA603D077
:100E5800BEEC0DF002D030EC0EF01A50010DC00EB1
:100E6800F324D96E010EF420DA6E0101DFA403D059
:100E7800BEEC0DF002D030EC0EF01A50010DC00E91
:100E8800F324D96E010EF420DA6E0101DFA203D03B
:100E9800BEEC0DF002D030EC0EF01A50010DC00E71
:100EA800F324D96E010EF420DA6E0101DFA003D01D
:100EB800BEEC0DF002D030EC0EF01B50010DC00E50
:100EC800F324D96E010EF420DA6E0101DFAE03D0EF
:100ED800BEEC0DF002D030EC0EF01B50010DC00E30
:100EE800F324D96E010EF420DA6E0101DFAC03D0D1
:100EF800BEEC0DF002D030EC0EF01B50010DC00E10
:100F0800F324D96E010EF420DA6E0101DFAA03D0B2
:100F1800BEEC0DF002D030EC0EF01B50010DC00EEF
:100F2800F324D96E010EF420DA6E0101DFA803D094
:100F3800BEEC0DF002D030EC0EF01B50010DC00ECF
:100F4800F324D96E010EF420DA6E0101DFA603D076
:100F5800BEEC0DF002D030EC0EF01B50010DC00EAF
:100F6800F324D96E010EF420DA6E0101DFA403D058
:100F7800BEEC0DF002D030EC0EF01B50010DC00E8F
:100F8800F324D96E010EF420DA6E0101DFA203D03A
:100F9800BEEC0DF002D030EC0EF01B50010DC00E6F
:100FA800F324D96E010EF420DA6E0101DFA003D01C
:100FB800BEEC0DF0120030EC0EF012001C6E1C504E
:100FC800010D600EF324D96E000EF420DA6E0001D4
:100FD800DFAE03D0D0EC0DF002D03FEC0EF01C5089
:100FE800010D600EF324D96E000EF420DA6E0001B4
:100FF800DFAC03D0D0EC0DF002D03FEC0EF01C506B
:10100800010D600EF324D96E000EF420DA6E000193
:10101800DFAA03D0D0EC0DF002D03FEC0EF01C504C
:10102800010D600EF324D96E000EF420DA6E000173
:10103800DFA803D0D0EC0DF002D03FEC0EF01C502E
:10104800010D600EF324D96E000EF420DA6E000153
:10105800DFA603D0D0EC0DF002D03FEC0EF01C5010
:10106800010D600EF324D96E000EF420DA6E000133
:10107800DFA403D0D0EC0DF002D03FEC0EF01C50F2
:10108800010D600EF324D96E000EF420DA6E000113
:10109800DFA203D0D0EC0DF002D03FEC0EF01C50D4
:1010A800010D600EF324D96E000EF420DA6E0001F3
:1010B800DFA003D0D0EC0DF002D03FEC0EF01A50B8
:1010C800010D600EF324D96E000EF420DA6E0001D3
:1010D800DFAE03D0D0EC0DF002D03FEC0EF01A508A
:1010E800010D600EF324D96E000EF420DA6E0001B3
:1010F800DFAC03D0D0EC0DF002D03FEC0EF01A506C
:10110800010D600EF324D96E000EF420DA6E000192
:10111800DFAA03D0D0EC0DF002D03FEC0EF01A504D
:10112800010D600EF324D96E000EF420DA6E000172
:10113800DFA803D0D0EC0DF002D03FEC0EF01A502F
:10114800010D600EF324D96E000EF420DA6E000152
:10115800DFA603D0D0EC0DF002D03FEC0EF01A5011
:10116800010D600EF324D96E000EF420DA6E000132
:10117800DFA403D0D0EC0DF002D03FEC0EF01A50F3
:10118800010D600EF324D96E000EF420DA6E000112
:10119800DFA203D0D0EC0DF002D03FEC0EF01A50D5
:1011A800010D600EF324D96E000EF420DA6E0001F2
:1011B800DFA003D0D0EC0DF002D03FEC0EF01B50B6
:1011C800010D600EF324D96E000EF420DA6E0001D2
:1011D800DFAE03D0D0EC0DF002D03FEC0EF01B5088
:1011E800010D600EF324D96E000EF420DA6E0001B2
:1011F800DFAC03D0D0EC0DF002D03FEC0EF01B506A
:10120800010D600EF324D96E000EF420DA6E000191
:10121800DFAA03D0D0EC0DF002D03FEC0EF01B504B
:10122800010D600EF324D96E000EF420DA6E000171
:10123800DFA803D0D0EC0DF002D03FEC0EF01B502D
:10124800010D600EF324D96E000EF420DA6E000151
:10125800DFA603D0D0EC0DF002D03FEC0EF01B500F
:10126800010D600EF324D96E000EF420DA6E000131
:10127800DFA403D0D0EC0DF002D03FEC0EF01B50F1
:10128800010D600EF324D96E000EF420DA6E000111
:10129800DFA203D0D0EC0DF002D03FEC0EF01B50D3
:1012A800010D600EF324D96E000EF420DA6E0001F1
:1012B800DFA003D0D0EC0DF012003FEC0EF01200CE
:1012C8001C6E1C50010DA00EF324D96E000EF420E4
:1012D800DA6E0001DFAE03D0E2EC0DF002D04EEC86
:1012E8000EF01C50010DA00EF324D96E000EF42050
:1012F800DA6E0001DFAC03D0E2EC0DF002D04EEC68
:101308000EF01C50010DA00EF324D96E000EF4202F
:10131800DA6E0001DFAA03D0E2EC0DF002D04EEC49
:101328000EF01C50010DA00EF324D96E000EF4200F
:10133800DA6E0001DFA803D0E2EC0DF002D04EEC2B
:101348000EF01C50010DA00EF324D96E000EF420EF
:10135800DA6E0001DFA603D0E2EC0DF002D04EEC0D
:101368000EF01C50010DA00EF324D96E000EF420CF
:10137800DA6E0001DFA403D0E2EC0DF002D04EECEF
:101388000EF01C50010DA00EF324D96E000EF420AF
:10139800DA6E0001DFA203D0E2EC0DF002D04EECD1
:1013A8000EF01C50010DA00EF324D96E000EF4208F
:1013B800DA6E0001DFA003D0E2EC0DF002D04EECB3
:1013C8000EF01A50010DA00EF324D96E000EF42071
:1013D800DA6E0001DFAE03D0E2EC0DF002D04EEC85
:1013E8000EF01A50010DA00EF324D96E000EF42051
:1013F800DA6E0001DFAC03D0E2EC0DF002D04EEC67
:101408000EF01A50010DA00EF324D96E000EF42030
:10141800DA6E0001DFAA03D0E2EC0DF002D04EEC48
:101428000EF01A50010DA00EF324D96E000EF42010
:10143800DA6E0001DFA803D0E2EC0DF002D04EEC2A
:101448000EF01A50010DA00EF324D96E000EF420F0
:10145800DA6E0001DFA603D0E2EC0DF002D04EEC0C
:101468000EF01A50010DA00EF324D96E000EF420D0
:10147800DA6E0001DFA403D0E2EC0DF002D04EECEE
:101488000EF01A50010DA00EF324D96E000EF420B0
:10149800DA6E0001DFA203D0E2EC0DF002D04EECD0
:1014A8000EF01A50010DA00EF324D96E000EF42090
:1014B800DA6E0001DFA003D0E2EC0DF002D04EECB2
:1014C8000EF01B50010DA00EF324D96E000EF4206F
:1014D800DA6E0001DFAE03D0E2EC0DF002D04EEC84
:1014E8000EF01B50010DA00EF324D96E000EF4204F
:1014F800DA6E0001DFAC03D0E2EC0DF002D04EEC66
:101508000EF01B50010DA00EF324D96E000EF4202E
:10151800DA6E0001DFAA03D0E2EC0DF002D04EEC47
:101528000EF01B50010DA00EF324D96E000EF4200E
:10153800DA6E0001DFA803D0E2EC0DF002D04EEC29
:101548000EF01B50010DA00EF324D96E000EF420EE
:10155800DA6E0001DFA603D0E2EC0DF002D04EEC0B
:101568000EF01B50010DA00EF324D96E000EF420CE
:10157800DA6E0001DFA403D0E2EC0DF002D04EECED
:101588000EF01B50010DA00EF324D96E000EF420AE
:10159800DA6E0001DFA203D0E2EC0DF002D04EECCF
:1015A8000EF01B50010DA00EF324D96E000EF4208E
:1015B800DA6E0001DFA003D0E2EC0DF012004EEC71
:1015C8000EF01200216E0A50010D400EF324D96E60
:1015D800020EF420DA6E21C0DFFF0A50010D400E22
:1015E800F324D96E020EF420DA6EFE0EDE18D8A4AB
:1015F80095D00750D8A492D0FC0E1A6EFF0E1B6E21
:101608000A501C6E1D6A1A501C261B501D22400EC3
:101618001C24D96E020E1D20DA6E550EDE18D8A4D1
:101628003BD1FF0E1A6EFF0E1B6E0A501C6E1D6A10
:101638001A501C261B501D22400E1C24D96E020E67
:101648001D20DA6EDF50086EFE0E1A6EFF0E1B6E3E
:101658000A501C6E1D6A1A501C261B501D22400E73
:101668001C24D96E020E1D20DA6EDF501E6E1E502D
:10167800016E026AFD0E1A6EFF0E1B6E0A501C6E7A
:101688001D6A1A501C261B501D22400E1C24D96EA0
:10169800020E1D20DA6EDF501E6E1E50036E046AA5
:1016A80003500410D8B435D003040410D8A403D0D0
:1016B80008C012F02ED0020E03180410D8A403D0CC
:1016C80008C011F026D0030E03180410D8A403D0C4
:1016D80008C010F01ED0040E03180410D8A403D0BC
:1016E80008C00FF016D0050E03180410D8A403D0B4
:1016F80008C00EF00ED0060E03180410D8A403D0AC
:1017080008C00DF006D0070E03180410D8B408C09E
:101718000CF0010E076E000E096EBED00750D8B44B
:10172800BBD003500410D8B456D003040410D8A476
:1017380007D00950010DA00EF324D96E000E47D032
:10174800020E03180410D8A407D00950010D600E2A
:10175800F324D96E000E3BD0030E03180410D8A44E
:1017680007D00950010DC00EF324D96E010E2FD0F9
:10177800040E03180410D8A407D00950010D800ED8
:10178800F324D96E010E23D0050E03180410D8A433
:1017980007D00950010D400EF324D96E010E17D061
:1017A800060E03180410D8A407D00950010D000E26
:1017B800F324D96E010E0BD0070E03180410D8A419
:1017C8000AD00950010D000EF324D96E020EF42040
:1017D800DA6E21C0DFFF000E0A6EFE0E1A6EFF0ED3
:1017E8001B6E08501C6E1D6A1A501C261B501D22A9
:1017F80009501E6E1F6A1C501E5C1F50800A206E06
:101808001D50800A2058D8A046D0000E076E000E42
:101818000A6E000E096E03500410D8B436D00304C3
:101828000410D8A403D0010E196E2FD0020E03188D
:101838000410D8A403D0010E186E27D0030E031885
:101848000410D8A403D0010E176E1FD0040E03187D
:101858000410D8A403D0010E166E17D0050E031875
:101868000410D8A403D0010E156E0FD0060E03186D
:101878000410D8A403D0010E146E07D0070E031865
:101888000410D8A402D0010E136E8BB602D08B863A
:1018980003D08B9601D0092A0A2A12001950D8B40D
:1018A80013D0000E0B6E0AD00B281A6E0B50020FC5
:1018B8001B6E0B5064EC09F0030E0B2612500B5CE8
:1018C800D8A0F2D7000E196E1850D8B413D0000E55
:1018D8000B6E0AD00B281A6E0B50020F1B6E0B50A2
:1018E800E2EC07F0030E0B2611500B5CD8A0F2D7E0
:1018F800000E186E1750D8B413D0000E0B6E0AD015
:101908000B281A6E0B50020F1B6E0B5060EC06F082
:10191800030E0B2610500B5CD8A0F2D7000E176EE2
:101928001650D8B413D0000E0B6E0AD00B281A6EBE
:101938000B50020F1B6E0B50DEEC04F0030E0B264F
:101948000F500B5CD8A0F2D7000E166E1550D8B405
:1019580013D0000E0B6E0AD00B281A6E0B50020F14
:101968001B6E0B505CEC03F0030E0B260E500B5C49
:10197800D8A0F2D7000E156E1450D8B413D0000EAC
:101988000B6E0AD00B281A6E0B50020F1B6E0B50F1
:10199800DAEC01F0030E0B260D500B5CD8A0F2D741
:1019A800000E146E1350D8B41200000E0B6E0AD03D
:1019B8000B281A6E0B50020F1B6E0B5058EC00F0E0
:1019C800030E0B260C500B5CD8A0F2D7000E136E3A
:1019D800120038BE09D0385003E13704D8A004D02B
:1019E8003706D8A038061200000E386E210E376E62
:1019F80052EC0CF036BE09D0365003E13504D8A0BD
:101A080004D03506D8A036061200000E366E090E30
:101A1800356E34BE09D0345003E13304D8A004D065
:101A28003306D8A034061200000E346E090E336E49
:101A380032BE09D0325003E13104D8A004D03106B7
:101A4800D8A032061200000E326E090E316E120056
:101A5800580EF66E1D0EF76E000EF86E00EE31F0A1
:101A680010EE08F00900F5CFEEFFE550E150FAE17D
:101A780002EE00F0800EEE6AE806FDE101EE00F0ED
:101A880011EE00F0EE6AE550E150FCE1E250FAE1B7
:101A980000EE60F0800EEE6AE806FDE100EE01F06F
:101AA800190EEE6AE806FDE13990399200018DEFD2
:101AB8000EF0000E896E0B0E926E000E0F01386F3D
:101AC800000E8A6E000E936E000E0F01396F000E25
:101AD800616E000E8B6E800E946E000E0F013A6FD1
:101AE800F18E12008B8000F000F000F000F000F0A2
:101AF80000F000F000F000F000F000F000F000F05E
:101B080000F000F08B9012008A8A00F000F000F0DC
:101B180000F000F000F000F000F000F000F000F03D
:101B280000F000F000F000F08A9A12008A8800F0B5
:101B380000F000F000F000F000F000F000F000F01D
:101B480000F000F000F000F000F000F08A981200B9
:101B58008A8600F000F000F000F000F000F000F0DD
:101B680000F000F000F000F000F000F000F000F0ED
:101B78008A9612008A8400F000F000F000F000F06D
:101B880000F000F000F000F000F000F000F000F0CD
:101B980000F000F08A9412008A8200F000F000F051
:101BA80000F000F000F000F000F000F000F000F0AD
:101BB80000F000F000F000F08A9212008A8000F035
:101BC80000F000F000F000F000F000F000F000F08D
:101BD80000F000F000F000F000F000F08A90120031
:101BE8008B8000F000F000F000F000F000F08B9027
:101BF80000F000F000F000F000F000F012008A8A17
:101C080000F000F000F000F000F000F08A9A00F018
:101C180000F000F000F000F000F012008A8800F0F8
:101C280000F000F000F000F000F08A9800F000F0FA
:101C380000F000F000F000F012008A8600F000F0DA
:101C480000F000F000F000F08A9600F000F000F0DC
:101C580000F000F000F012008A8400F000F000F0BC
:101C680000F000F000F08A9400F000F000F000F0BE
:101C780000F000F012008A8200F000F000F000F09E
:101C880000F000F08A9200F000F000F000F000F0A0
:101C980000F012008A8000F000F000F000F000F080
:101CA80000F08A9000F000F000F000F000F000F082
:101CB80012009D9A9D98480EB86E900EAB6E260E37
:101CC800AC6E000EB06E890EAF6E9D8A1200000ECB
:101CD800226EABA202D0AB98AB88AECF22F02250D6
:101CE800E6EC0AF0120096EC0EF05DEC0DF0A7ECB5
:101CF8000EF082EC0EF05DEC0EF01200C00ED56E08
:101D0800010ED76E130ED66EF294F28AB6EC0EF070
:101D1800120077EC0EF0B0EC0EF0F28EF28CBAEC0A
:101D28000EF0FFD7700ED36E040ED26E400E9B6E6F
:101D3800D2BE1200FDD7F294010ED76E130ED66EE6
:101D4800B3EC0EF01200D09EF1949F9A9F98120067
:101D58000900090009000400F288F18C1200EDEC7A
:0E1D68000CF01200D58E12009D981200FFD7CD
:020000040020DA
:08000000FFFFFFFFFFFFFFFF00
:020000040030CA
:0E000000FF381F3CFFBF81FF0FC00FE00F4015
:00000001FF
