:0400000056EF00F0C7
:100008005C82FACF45F0FBCF46F0E9CF47F0EACF64
:1000180048F0E1CF49F0E2CF4AF0D9CF4BF0DACF40
:100028004CF0F3CF4DF0F4CF4EF0F6CF4FF0F7CFC2
:1000380050F0F8CF51F0F5CF52F0F2BAF2A403D055
:1000480099EC03F010D09DBA9EAA03D065EC03F09A
:100058000AD09DB89EA803D0B7EC03F004D0F2B83C
:10006800F2A201D0F292F18452C0F5FF51C0F8FF1C
:1000780050C0F7FF4FC0F6FF4EC0F4FF4DC0F3FF6E
:100088004CC0DAFF4BC0D9FF4AC0E2FF49C0E1FFCC
:1000980048C0EAFF47C0E9FF46C0FBFF45C0FAFF7A
:1000A8005C92110070EF02F03F6E3F50010D160E8A
:1000B800F324D96E000EF420DA6EDFAE03D036ECEE
:1000C80003F002D048EC03F03F50010D160EF32464
:1000D800D96E000EF420DA6EDFAC03D036EC03F0F4
:1000E80002D048EC03F03F50010D160EF324D96EF0
:1000F800000EF420DA6EDFAA03D036EC03F002D04B
:1001080048EC03F03F50010D160EF324D96E000E93
:10011800F420DA6EDFA803D036EC03F002D048EC06
:1001280003F03F50010D160EF324D96E000EF42093
:10013800DA6EDFA603D036EC03F002D048EC03F009
:100148003F50010D160EF324D96E000EF420DA6E1E
:10015800DFA403D036EC03F002D048EC03F03F50A4
:10016800010D160EF324D96E000EF420DA6EDFA20C
:1001780003D036EC03F002D048EC03F03F50010DF9
:10018800160EF324D96E000EF420DA6EDFA003D029
:1001980036EC03F002D048EC03F03D50010D160E8A
:1001A800F324D96E000EF420DA6EDFAE03D036ECFD
:1001B80003F002D048EC03F03D50010D160EF32475
:1001C800D96E000EF420DA6EDFAC03D036EC03F003
:1001D80002D048EC03F03D50010D160EF324D96E01
:1001E800000EF420DA6EDFAA03D036EC03F002D05A
:1001F80048EC03F03D50010D160EF324D96E000EA5
:10020800F420DA6EDFA803D036EC03F002D048EC15
:1002180003F03D50010D160EF324D96E000EF420A4
:10022800DA6EDFA603D036EC03F002D048EC03F018
:100238003D50010D160EF324D96E000EF420DA6E2F
:10024800DFA403D036EC03F002D048EC03F03D50B5
:10025800010D160EF324D96E000EF420DA6EDFA21B
:1002680003D036EC03F002D048EC03F03D50010D0A
:10027800160EF324D96E000EF420DA6EDFA003D038
:1002880036EC03F002D048EC03F03E50010D160E98
:10029800F324D96E000EF420DA6EDFAE03D036EC0C
:1002A80003F002D048EC03F03E50010D160EF32483
:1002B800D96E000EF420DA6EDFAC03D036EC03F012
:1002C80002D048EC03F03E50010D160EF324D96E0F
:1002D800000EF420DA6EDFAA03D036EC03F002D069
:1002E80048EC03F03E50010D160EF324D96E000EB3
:1002F800F420DA6EDFA803D036EC03F002D048EC25
:1003080003F03E50010D160EF324D96E000EF420B2
:10031800DA6EDFA603D036EC03F002D048EC03F027
:100328003E50010D160EF324D96E000EF420DA6E3D
:10033800DFA403D036EC03F002D048EC03F03E50C3
:10034800010D160EF324D96E000EF420DA6EDFA22A
:1003580003D036EC03F002D048EC03F03E50010D18
:10036800160EF324D96E000EF420DA6EDFA003D047
:1003780036EC03F0120048EC03F01200436E2550EF
:10038800ABEC03F03950D8B420D0160E2524D96E22
:10039800000E2620DA6E43C0DFFF27501D5C1E507A
:1003A800800A3E6E2850800A3E58D8B00ED0000E03
:1003B800396E000E286E000E276E000E266E000E97
:1003C800256E000E366E010E356E600E2724D96E2E
:1003D800000E2820DA6E43C0DFFF600E2724D96E96
:1003E800000E2820DA6EFE0EDE18D8A46DD0395023
:1003F800D8A46AD0FC0E3E6EFF0E3F6E27C040F0B8
:1004080028C041F03E5040263F504122600E402413
:10041800D96E000E4120DA6E550EDE18D8A456D0DB
:10042800FF0E3E6EFF0E3F6E27C040F028C041F021
:100438003E5040263F504122600E4024D96E000EA7
:100448004120DA6EDF50426E42501D6E1E6A1DC09A
:100458001FF01EC020F0FE0E3E6EFF0E3F6E27C03E
:1004680040F028C041F03E5040263F504122600EE7
:100478004024D96E000E4120DA6EDF50426E4250A1
:10048800216E226AFD0E3E6EFF0E3F6E27C040F0C1
:1004980028C041F03E5040263F504122600E402483
:1004A800D96E000E4120DA6EDF50426E4250236E44
:1004B800246A010E396E000E286E020E276E000E99
:1004C800266E000E256E02D0274A282A3950D8B445
:1004D8001200254A262A12004C0EF66E070EF76EF9
:1004E800000EF86E00EE53F010EE09F00900F5CF9B
:1004F800EEFFE550E150FAE104EE00F0C00EEE6ABE
:10050800E806FDE103EE00F011EE00F0EE6AE550BA
:10051800E150FCE1E250FAE102EE00F011EE00F0E9
:10052800EE6AE550E150FCE1E250FAE101EE00F03C
:1005380011EE00F0EE6AE550E150FCE1E250FAE11C
:1005480000EE60F0950EEE6AE806FDE100EE01F0BF
:100558003C0EEE6AE806FDE15C905C92000187EFD4
:1005680003F05ABE09D05A5003E15904D8A004D068
:100578005906D8A05A061200000E5A6E210E596E5E
:10058800FAEC02F058BE09D0585003E15704D8A03D
:1005980004D05706D8A058061200000E586E090E4F
:1005A800576EBBEC03F056BE09D0565003E1550414
:1005B800D8A004D05506D8A056061200000E566ED4
:1005C800090E556EBCEC03F054BE09D0545003E13B
:1005D8005304D8A004D05306D8A054061200000E25
:1005E800546E090E536EBAEC03F01200350436103F
:1005F800D8A41200000E3C6E0AD03C283D6E3C5038
:10060800020F3E6E3C5058EC00F0030E3C263C5066
:10061800406E416A1F50405C4150800A426E205033
:10062800800A4258D8A0E9D7000E366E000E356E03
:100638001200000E896E0B0E926E000E0F01386FBD
:10064800000E8A6E000E936E000E0F01396F000EB9
:10065800616E000E8B6E820E946E000E0F013A6F63
:10066800F18E12008A8200F000F000F000F000F035
:1006780000F000F000F000F000F000F000F000F0F2
:1006880000F000F08A9212008A8200F000F000F078
:1006980000F000F000F08A9200F000F000F000F0A6
:1006A80000F000F012009D9A9D98480EB86E900ECA
:1006B800AB6E260EAC6E000EB06E890EAF6E9D8AC4
:1006C8001200000E446EABA202D0AB98AB88AECF3E
:1006D80044F04450C2EC01F0120090EC03F01DEC21
:1006E80003F0A1EC03F07CEC03F057EC03F01200EC
:1006F800C00ED56E010ED76E130ED66EF294F28A26
:10070800B5EC03F0120071EC03F0AFEC03F0F28EDD
:10071800F28CB9EC03F0FFD7700ED36E040ED26ED4
:10072800400E9B6ED2BE1200FDD7F294010ED76E1A
:10073800130ED66EB2EC03F01200D09EF1949F9A7D
:0D0748009F9812000900090009000400013B
:100756003D6E3DC0ADFF1200F288F18C1200B5EC83
:1007660002F01200D58E12009D981200FFD71200DB
:04077600120012005B
:020000040020DA
:08000000FFFFFFFFFFFFFFFF00
:020000040030CA
:0E000000FF381F3CFFBF81FF0FC00FE00F4015
:00000001FF
