:0400000056EF00F0C7
:100008005B82FACF44F0FBCF45F0E9CF46F0EACF68
:1000180047F0E1CF48F0E2CF49F0D9CF4AF0DACF44
:100028004BF0F3CF4CF0F4CF4DF0F6CF4EF0F7CFC6
:100038004FF0F8CF50F0F5CF51F0F2BAF2A403D058
:10004800C1EC0EF010D09DBA9EAA03D08DEC0EF034
:100058000AD09DB89EA803D0DBEC0EF004D0F2B80D
:10006800F2A201D0F292F18451C0F5FF50C0F8FF1E
:100078004FC0F7FF4EC0F6FF4DC0F4FF4CC0F3FF72
:100088004BC0DAFF4AC0D9FF49C0E2FF48C0E1FFD0
:1000980047C0EAFF46C0E9FF45C0FBFF44C0FAFF7E
:1000A8005B921100F5EF0CF0316E3150010D000E2E
:1000B800F324D96E030EF420DA6E0301DFAE03D009
:1000C80098EC0DF002D016EC0EF03150010D000E38
:1000D800F324D96E030EF420DA6E0301DFAC03D0EB
:1000E80098EC0DF002D016EC0EF03150010D000E18
:1000F800F324D96E030EF420DA6E0301DFAA03D0CD
:1001080098EC0DF002D016EC0EF03150010D000EF7
:10011800F324D96E030EF420DA6E0301DFA803D0AE
:1001280098EC0DF002D016EC0EF03150010D000ED7
:10013800F324D96E030EF420DA6E0301DFA603D090
:1001480098EC0DF002D016EC0EF03150010D000EB7
:10015800F324D96E030EF420DA6E0301DFA403D072
:1001680098EC0DF002D016EC0EF03150010D000E97
:10017800F324D96E030EF420DA6E0301DFA203D054
:1001880098EC0DF002D016EC0EF03150010D000E77
:10019800F324D96E030EF420DA6E0301DFA003D036
:1001A80098EC0DF002D016EC0EF03150010D400E17
:1001B800F324D96E030EF420DA6E0301DFAE03D008
:1001C80098EC0DF002D016EC0EF03150010D400EF7
:1001D800F324D96E030EF420DA6E0301DFAC03D0EA
:1001E80098EC0DF002D016EC0EF03150010D400ED7
:1001F800F324D96E030EF420DA6E0301DFAA03D0CC
:1002080098EC0DF002D016EC0EF03150010D400EB6
:10021800F324D96E030EF420DA6E0301DFA803D0AD
:1002280098EC0DF002D016EC0EF03150010D400E96
:10023800F324D96E030EF420DA6E0301DFA603D08F
:1002480098EC0DF002D016EC0EF03150010D400E76
:10025800F324D96E030EF420DA6E0301DFA403D071
:1002680098EC0DF002D016EC0EF03150010D400E56
:10027800F324D96E030EF420DA6E0301DFA203D053
:1002880098EC0DF002D016EC0EF03150010D400E36
:10029800F324D96E030EF420DA6E0301DFA003D035
:1002A80098EC0DF002D016EC0EF03150010D000E56
:1002B800F324D96E040EF420DA6E0401DFAE03D005
:1002C80098EC0DF002D016EC0EF03150010D000E36
:1002D800F324D96E040EF420DA6E0401DFAC03D0E7
:1002E80098EC0DF002D016EC0EF03150010D000E16
:1002F800F324D96E040EF420DA6E0401DFAA03D0C9
:1003080098EC0DF002D016EC0EF03150010D000EF5
:10031800F324D96E040EF420DA6E0401DFA803D0AA
:1003280098EC0DF002D016EC0EF03150010D000ED5
:10033800F324D96E040EF420DA6E0401DFA603D08C
:1003480098EC0DF002D016EC0EF03150010D000EB5
:10035800F324D96E040EF420DA6E0401DFA403D06E
:1003680098EC0DF002D016EC0EF03150010D000E95
:10037800F324D96E040EF420DA6E0401DFA203D050
:1003880098EC0DF002D016EC0EF03150010D000E75
:10039800F324D96E040EF420DA6E0401DFA003D032
:1003A80098EC0DF0120016EC0EF01200316E315080
:1003B800010DC00EF324D96E030EF420DA6E03018A
:1003C800DFAE03D0AAEC0DF002D025EC0EF03150D0
:1003D800010DC00EF324D96E030EF420DA6E03016A
:1003E800DFAC03D0AAEC0DF002D025EC0EF03150B2
:1003F800010DC00EF324D96E030EF420DA6E03014A
:10040800DFAA03D0AAEC0DF002D025EC0EF0315093
:10041800010DC00EF324D96E030EF420DA6E030129
:10042800DFA803D0AAEC0DF002D025EC0EF0315075
:10043800010DC00EF324D96E030EF420DA6E030109
:10044800DFA603D0AAEC0DF002D025EC0EF0315057
:10045800010DC00EF324D96E030EF420DA6E0301E9
:10046800DFA403D0AAEC0DF002D025EC0EF0315039
:10047800010DC00EF324D96E030EF420DA6E0301C9
:10048800DFA203D0AAEC0DF002D025EC0EF031501B
:10049800010DC00EF324D96E030EF420DA6E0301A9
:1004A800DFA003D0AAEC0DF002D025EC0EF03150FD
:1004B800010D000EF324D96E020EF420DA6E02014B
:1004C800DFAE03D0AAEC0DF002D025EC0EF03150CF
:1004D800010D000EF324D96E020EF420DA6E02012B
:1004E800DFAC03D0AAEC0DF002D025EC0EF03150B1
:1004F800010D000EF324D96E020EF420DA6E02010B
:10050800DFAA03D0AAEC0DF002D025EC0EF0315092
:10051800010D000EF324D96E020EF420DA6E0201EA
:10052800DFA803D0AAEC0DF002D025EC0EF0315074
:10053800010D000EF324D96E020EF420DA6E0201CA
:10054800DFA603D0AAEC0DF002D025EC0EF0315056
:10055800010D000EF324D96E020EF420DA6E0201AA
:10056800DFA403D0AAEC0DF002D025EC0EF0315038
:10057800010D000EF324D96E020EF420DA6E02018A
:10058800DFA203D0AAEC0DF002D025EC0EF031501A
:10059800010D000EF324D96E020EF420DA6E02016A
:1005A800DFA003D0AAEC0DF002D025EC0EF03150FC
:1005B800010D800EF324D96E030EF420DA6E0301C8
:1005C800DFAE03D0AAEC0DF002D025EC0EF03150CE
:1005D800010D800EF324D96E030EF420DA6E0301A8
:1005E800DFAC03D0AAEC0DF002D025EC0EF03150B0
:1005F800010D800EF324D96E030EF420DA6E030188
:10060800DFAA03D0AAEC0DF002D025EC0EF0315091
:10061800010D800EF324D96E030EF420DA6E030167
:10062800DFA803D0AAEC0DF002D025EC0EF0315073
:10063800010D800EF324D96E030EF420DA6E030147
:10064800DFA603D0AAEC0DF002D025EC0EF0315055
:10065800010D800EF324D96E030EF420DA6E030127
:10066800DFA403D0AAEC0DF002D025EC0EF0315037
:10067800010D800EF324D96E030EF420DA6E030107
:10068800DFA203D0AAEC0DF002D025EC0EF0315019
:10069800010D800EF324D96E030EF420DA6E0301E7
:1006A800DFA003D0AAEC0DF0120025EC0EF012002A
:1006B800316E3150010D800EF324D96E020EF420F4
:1006C800DA6E0201DFAE03D0BCEC0DF002D034ECE0
:1006D8000EF03150010D800EF324D96E020EF42075
:1006E800DA6E0201DFAC03D0BCEC0DF002D034ECC2
:1006F8000EF03150010D800EF324D96E020EF42055
:10070800DA6E0201DFAA03D0BCEC0DF002D034ECA3
:100718000EF03150010D800EF324D96E020EF42034
:10072800DA6E0201DFA803D0BCEC0DF002D034EC85
:100738000EF03150010D800EF324D96E020EF42014
:10074800DA6E0201DFA603D0BCEC0DF002D034EC67
:100758000EF03150010D800EF324D96E020EF420F4
:10076800DA6E0201DFA403D0BCEC0DF002D034EC49
:100778000EF03150010D800EF324D96E020EF420D4
:10078800DA6E0201DFA203D0BCEC0DF002D034EC2B
:100798000EF03150010D800EF324D96E020EF420B4
:1007A800DA6E0201DFA003D0BCEC0DF002D034EC0D
:1007B8000EF03150010DC00EF324D96E020EF42054
:1007C800DA6E0201DFAE03D0BCEC0DF002D034ECDF
:1007D8000EF03150010DC00EF324D96E020EF42034
:1007E800DA6E0201DFAC03D0BCEC0DF002D034ECC1
:1007F8000EF03150010DC00EF324D96E020EF42014
:10080800DA6E0201DFAA03D0BCEC0DF002D034ECA2
:100818000EF03150010DC00EF324D96E020EF420F3
:10082800DA6E0201DFA803D0BCEC0DF002D034EC84
:100838000EF03150010DC00EF324D96E020EF420D3
:10084800DA6E0201DFA603D0BCEC0DF002D034EC66
:100858000EF03150010DC00EF324D96E020EF420B3
:10086800DA6E0201DFA403D0BCEC0DF002D034EC48
:100878000EF03150010DC00EF324D96E020EF42093
:10088800DA6E0201DFA203D0BCEC0DF002D034EC2A
:100898000EF03150010DC00EF324D96E020EF42073
:1008A800DA6E0201DFA003D0BCEC0DF002D034EC0C
:1008B8000EF03150010D400EF324D96E020EF420D3
:1008C800DA6E0201DFAE03D0BCEC0DF002D034ECDE
:1008D8000EF03150010D400EF324D96E020EF420B3
:1008E800DA6E0201DFAC03D0BCEC0DF002D034ECC0
:1008F8000EF03150010D400EF324D96E020EF42093
:10090800DA6E0201DFAA03D0BCEC0DF002D034ECA1
:100918000EF03150010D400EF324D96E020EF42072
:10092800DA6E0201DFA803D0BCEC0DF002D034EC83
:100938000EF03150010D400EF324D96E020EF42052
:10094800DA6E0201DFA603D0BCEC0DF002D034EC65
:100958000EF03150010D400EF324D96E020EF42032
:10096800DA6E0201DFA403D0BCEC0DF002D034EC47
:100978000EF03150010D400EF324D96E020EF42012
:10098800DA6E0201DFA203D0BCEC0DF002D034EC29
:100998000EF03150010D400EF324D96E020EF420F2
:1009A800DA6E0201DFA003D0BCEC0DF0120034ECCB
:1009B8000EF01200316E3150010D400EF324D96E45
:1009C800010EF420DA6E0101DFAE03D0CEEC0DF09B
:1009D80002D043EC0EF03150010D400EF324D96ED5
:1009E800010EF420DA6E0101DFAC03D0CEEC0DF07D
:1009F80002D043EC0EF03150010D400EF324D96EB5
:100A0800010EF420DA6E0101DFAA03D0CEEC0DF05E
:100A180002D043EC0EF03150010D400EF324D96E94
:100A2800010EF420DA6E0101DFA803D0CEEC0DF040
:100A380002D043EC0EF03150010D400EF324D96E74
:100A4800010EF420DA6E0101DFA603D0CEEC0DF022
:100A580002D043EC0EF03150010D400EF324D96E54
:100A6800010EF420DA6E0101DFA403D0CEEC0DF004
:100A780002D043EC0EF03150010D400EF324D96E34
:100A8800010EF420DA6E0101DFA203D0CEEC0DF0E6
:100A980002D043EC0EF03150010D400EF324D96E14
:100AA800010EF420DA6E0101DFA003D0CEEC0DF0C8
:100AB80002D043EC0EF03150010D800EF324D96EB4
:100AC800010EF420DA6E0101DFAE03D0CEEC0DF09A
:100AD80002D043EC0EF03150010D800EF324D96E94
:100AE800010EF420DA6E0101DFAC03D0CEEC0DF07C
:100AF80002D043EC0EF03150010D800EF324D96E74
:100B0800010EF420DA6E0101DFAA03D0CEEC0DF05D
:100B180002D043EC0EF03150010D800EF324D96E53
:100B2800010EF420DA6E0101DFA803D0CEEC0DF03F
:100B380002D043EC0EF03150010D800EF324D96E33
:100B4800010EF420DA6E0101DFA603D0CEEC0DF021
:100B580002D043EC0EF03150010D800EF324D96E13
:100B6800010EF420DA6E0101DFA403D0CEEC0DF003
:100B780002D043EC0EF03150010D800EF324D96EF3
:100B8800010EF420DA6E0101DFA203D0CEEC0DF0E5
:100B980002D043EC0EF03150010D800EF324D96ED3
:100BA800010EF420DA6E0101DFA003D0CEEC0DF0C7
:100BB80002D043EC0EF03150010D000EF324D96E33
:100BC800010EF420DA6E0101DFAE03D0CEEC0DF099
:100BD80002D043EC0EF03150010D000EF324D96E13
:100BE800010EF420DA6E0101DFAC03D0CEEC0DF07B
:100BF80002D043EC0EF03150010D000EF324D96EF3
:100C0800010EF420DA6E0101DFAA03D0CEEC0DF05C
:100C180002D043EC0EF03150010D000EF324D96ED2
:100C2800010EF420DA6E0101DFA803D0CEEC0DF03E
:100C380002D043EC0EF03150010D000EF324D96EB2
:100C4800010EF420DA6E0101DFA603D0CEEC0DF020
:100C580002D043EC0EF03150010D000EF324D96E92
:100C6800010EF420DA6E0101DFA403D0CEEC0DF002
:100C780002D043EC0EF03150010D000EF324D96E72
:100C8800010EF420DA6E0101DFA203D0CEEC0DF0E4
:100C980002D043EC0EF03150010D000EF324D96E52
:100CA800010EF420DA6E0101DFA003D0CEEC0DF0C6
:100CB800120043EC0EF01200316E3150010D600E3F
:100CC800F324D96E000EF420DA6E0001DFAC03D0F5
:100CD800E0EC0DF002D052EC0EF03150010D600E38
:100CE800F324D96E000EF420DA6E0001DFAE03D0D3
:100CF800E0EC0DF002D052EC0EF03150010D600E18
:100D0800F324D96E000EF420DA6E0001DFAA03D0B6
:100D1800E0EC0DF002D052EC0EF03150010D600EF7
:100D2800F324D96E000EF420DA6E0001DFA803D098
:100D3800E0EC0DF002D052EC0EF03150010D600ED7
:100D4800F324D96E000EF420DA6E0001DFA603D07A
:100D5800E0EC0DF002D052EC0EF03150010D600EB7
:100D6800F324D96E000EF420DA6E0001DFA403D05C
:100D7800E0EC0DF002D052EC0EF03150010D600E97
:100D8800F324D96E000EF420DA6E0001DFA203D03E
:100D9800E0EC0DF002D052EC0EF03150010D600E77
:100DA800F324D96E000EF420DA6E0001DFA003D020
:100DB800E0EC0DF002D052EC0EF03150010DA00E17
:100DC800F324D96E000EF420DA6E0001DFAE03D0F2
:100DD800E0EC0DF002D052EC0EF03150010DA00EF7
:100DE800F324D96E000EF420DA6E0001DFAC03D0D4
:100DF800E0EC0DF002D052EC0EF03150010DA00ED7
:100E0800F324D96E000EF420DA6E0001DFAA03D0B5
:100E1800E0EC0DF002D052EC0EF03150010DA00EB6
:100E2800F324D96E000EF420DA6E0001DFA803D097
:100E3800E0EC0DF002D052EC0EF03150010DA00E96
:100E4800F324D96E000EF420DA6E0001DFA603D079
:100E5800E0EC0DF002D052EC0EF03150010DA00E76
:100E6800F324D96E000EF420DA6E0001DFA403D05B
:100E7800E0EC0DF002D052EC0EF03150010DA00E56
:100E8800F324D96E000EF420DA6E0001DFA203D03D
:100E9800E0EC0DF002D052EC0EF03150010DA00E36
:100EA800F324D96E000EF420DA6E0001DFA003D01F
:100EB800E0EC0DF002D052EC0EF03150010DC00EF6
:100EC800F324D96E010EF420DA6E0101DFAE03D0EF
:100ED800E0EC0DF002D052EC0EF03150010DC00ED6
:100EE800F324D96E010EF420DA6E0101DFAC03D0D1
:100EF800E0EC0DF002D052EC0EF03150010DC00EB6
:100F0800F324D96E010EF420DA6E0101DFAA03D0B2
:100F1800E0EC0DF002D052EC0EF03150010DC00E95
:100F2800F324D96E010EF420DA6E0101DFA803D094
:100F3800E0EC0DF002D052EC0EF03150010DC00E75
:100F4800F324D96E010EF420DA6E0101DFA603D076
:100F5800E0EC0DF002D052EC0EF03150010DC00E55
:100F6800F324D96E010EF420DA6E0101DFA403D058
:100F7800E0EC0DF002D052EC0EF03150010DC00E35
:100F8800F324D96E010EF420DA6E0101DFA203D03A
:100F9800E0EC0DF002D052EC0EF03150010DC00E15
:100FA800F324D96E010EF420DA6E0101DFA003D01C
:100FB800E0EC0DF0120052EC0EF01200316E3150E0
:100FC800010DF70EF324D96E000EF420DA6E00013D
:100FD800DFAE03D0F2EC0DF002D061EC0EF0315030
:100FE800010DF70EF324D96E000EF420DA6E00011D
:100FF800DFAC03D0F2EC0DF002D061EC0EF0315012
:10100800010DF70EF324D96E000EF420DA6E0001FC
:10101800DFAA03D0F2EC0DF002D061EC0EF03150F3
:10102800010DF70EF324D96E000EF420DA6E0001DC
:10103800DFA803D0F2EC0DF002D061EC0EF03150D5
:10104800010DF70EF324D96E000EF420DA6E0001BC
:10105800DFA603D0F2EC0DF002D061EC0EF03150B7
:10106800010DF70EF324D96E000EF420DA6E00019C
:10107800DFA403D0F2EC0DF002D061EC0EF0315099
:10108800010DF70EF324D96E000EF420DA6E00017C
:10109800DFA203D0F2EC0DF002D061EC0EF031507B
:1010A800010DF70EF324D96E000EF420DA6E00015C
:1010B800DFA003D0F2EC0DF002D061EC0EF031505D
:1010C800010D010EF324D96E000EF420DA6EDFAEA6
:1010D80003D0F2EC0DF002D061EC0EF03150010DAE
:1010E800010EF324D96E000EF420DA6EDFAC03D0C3
:1010F800F2EC0DF002D061EC0EF03150010D010E52
:10110800F324D96E000EF420DA6EDFAA03D0F2ECD5
:101118000DF002D061EC0EF03150010D010EF324F8
:10112800D96E000EF420DA6EDFA803D0F2EC0DF0D1
:1011380002D061EC0EF03150010D010EF324D96E8E
:10114800000EF420DA6EDFA603D0F2EC0DF002D028
:1011580061EC0EF03150010D010EF324D96E000E32
:10116800F420DA6EDFA403D0F2EC0DF002D061ECCB
:101178000EF03150010D010EF324D96E000EF4204B
:10118800DA6EDFA203D0F2EC0DF002D061EC0EF0C3
:101198003150010D010EF324D96E000EF420DA6EE1
:1011A800DFA003D0F2EC0DF002D061EC0EF031506C
:1011B800010DF00EF324D96E000EF420DA6E000152
:1011C800DFAE03D0F2EC0DF002D061EC0EF031503E
:1011D800010DF00EF324D96E000EF420DA6E000132
:1011E800DFAC03D0F2EC0DF002D061EC0EF0315020
:1011F800010DF00EF324D96E000EF420DA6E000112
:10120800DFAA03D0F2EC0DF002D061EC0EF0315001
:10121800010DF00EF324D96E000EF420DA6E0001F1
:10122800DFA803D0F2EC0DF002D061EC0EF03150E3
:10123800010DF00EF324D96E000EF420DA6E0001D1
:10124800DFA603D0F2EC0DF002D061EC0EF03150C5
:10125800010DF00EF324D96E000EF420DA6E0001B1
:10126800DFA403D0F2EC0DF002D061EC0EF03150A7
:10127800010DF00EF324D96E000EF420DA6E000191
:10128800DFA203D0F2EC0DF002D061EC0EF0315089
:10129800010DF00EF324D96E000EF420DA6E000171
:1012A800DFA003D0F2EC0DF0120061EC0EF012009A
:1012B800316E3150010D0F0EF324D96E000EF4205B
:1012C800DA6EDFAE03D004EC0EF002D070EC0EF054
:1012D8003150010D0F0EF324D96E000EF420DA6E92
:1012E800DFAC03D004EC0EF002D070EC0EF03150FD
:1012F800010D0F0EF324D96E000EF420DA6EDFAA6A
:1013080003D004EC0EF002D070EC0EF03150010D59
:101318000F0EF324D96E000EF420DA6EDFA803D086
:1013280004EC0EF002D070EC0EF03150010D0F0EEF
:10133800F324D96E000EF420DA6EDFA603D004EC95
:101348000EF002D070EC0EF03150010D0F0EF324A8
:10135800D96E000EF420DA6EDFA403D004EC0EF090
:1013680002D070EC0EF03150010D0F0EF324D96E3F
:10137800000EF420DA6EDFA203D004EC0EF002D0E7
:1013880070EC0EF03150010D0F0EF324D96E000EE3
:10139800F420DA6EDFA003D004EC0EF002D070EC7B
:1013A8000EF03150010D160EF324D96E000EF42004
:1013B800DA6EDFAE03D004EC0EF002D070EC0EF063
:1013C8003150010D160EF324D96E000EF420DA6E9A
:1013D800DFAC03D004EC0EF002D070EC0EF031500C
:1013E800010D160EF324D96E000EF420DA6EDFAA72
:1013F80003D004EC0EF002D070EC0EF03150010D69
:10140800160EF324D96E000EF420DA6EDFA803D08E
:1014180004EC0EF002D070EC0EF03150010D160EF7
:10142800F324D96E000EF420DA6EDFA603D004ECA4
:101438000EF002D070EC0EF03150010D160EF324B0
:10144800D96E000EF420DA6EDFA403D004EC0EF09F
:1014580002D070EC0EF03150010D160EF324D96E47
:10146800000EF420DA6EDFA203D004EC0EF002D0F6
:1014780070EC0EF03150010D160EF324D96E000EEB
:10148800F420DA6EDFA003D004EC0EF002D070EC8A
:101498000EF03150010D080EF324D96E000EF42021
:1014A800DA6EDFAE03D004EC0EF002D070EC0EF072
:1014B8003150010D080EF324D96E000EF420DA6EB7
:1014C800DFAC03D004EC0EF002D070EC0EF031501B
:1014D800010D080EF324D96E000EF420DA6EDFAA8F
:1014E80003D004EC0EF002D070EC0EF03150010D78
:1014F800080EF324D96E000EF420DA6EDFA803D0AC
:1015080004EC0EF002D070EC0EF03150010D080E14
:10151800F324D96E000EF420DA6EDFA603D004ECB3
:101528000EF002D070EC0EF03150010D080EF324CD
:10153800D96E000EF420DA6EDFA403D004EC0EF0AE
:1015480002D070EC0EF03150010D080EF324D96E64
:10155800000EF420DA6EDFA203D004EC0EF002D005
:1015680070EC0EF03150010D080EF324D96E000E08
:10157800F420DA6EDFA003D004EC0EF0120070EC59
:101588000EF01200366E3150D8A407D034C037F0B0
:1015980033C038F035C039F009D03104D8A406D0AA
:1015A80033C037F035C038F034C039F03650D8A4DD
:1015B8001FD03250010D160EF324D96E000EF42000
:1015C800DA6E37C0DFFF3250010D0F0EF324D96EEB
:1015D800000EF420DA6E38C0DFFF3250010D080E1D
:1015E800F324D96E000EF420DA6E39C0DFFF120042
:1015F8003604D8A41FD03250010D010EF324D96E41
:10160800000EF420DA6E37C0DFFF3250010DF70EFE
:10161800F324D96E000EF420DA6E38C0DFFF3250A2
:10162800010DF00EF324D96E000EF420DA6E39C0E5
:10163800DFFF1200020E3618D8A41FD03250010D59
:10164800A00EF324D96E000EF420DA6E37C0DFFF47
:101658003250010D600EF324D96E000EF420DA6EBC
:1016680038C0DFFF3250010DC00EF324D96E010ED1
:10167800F420DA6E39C0DFFF1200030E3618D8A442
:101688001FD03250010D800EF324D96E010EF420C4
:10169800DA6E37C0DFFF3250010D400EF324D96EE9
:1016A800010EF420DA6E38C0DFFF3250010D000E53
:1016B800F324D96E010EF420DA6E39C0DFFF120070
:1016C800040E3618D8A41FD03250010DC00EF324D2
:1016D800D96E020EF420DA6E37C0DFFF3250010DEA
:1016E800800EF324D96E020EF420DA6E38C0DFFFC4
:1016F8003250010D400EF324D96E020EF420DA6E3A
:1017080039C0DFFF1200050E3618D8A41200325077
:10171800010D000EF324D96E020EF420DA6E37C0E4
:10172800DFFF3250010DC00EF324D96E030EF420F2
:10173800DA6E38C0DFFF3250010D800EF324D96E07
:10174800030EF420DA6E39C0DFFF1200426EE00E9D
:101758001D24D96E000E1E20DA6E42C0DFFFE00E97
:101768001D24D96E000E1E20DA6EDE28D8A452D0B1
:101778008BB602D08B863DD08B963BD0000E316E57
:101788001DC032F0E00E1D24D96E000E1E20DA6E48
:10179800DF50336EFF0E3A6EFF0E3B6E1DC03CF0FD
:1017A8001EC03DF03A503C263B503D22E00E3C2402
:1017B800D96E000E3D20DA6EDF50346EFE0E3E6E9E
:1017C800FF0E3F6E1DC040F01EC041F03E50402647
:1017D8003F504122E00E4024D96E000E4120DA6EBF
:1017E800DF50356E010EC6EC0AF0FE0E1D26FF0E08
:1017F8001E221EBE06D01E50C1E1030E1D5CD8B0CD
:10180800BDD7000E2A6E010E296E000E1E6E000E48
:101818001D6E12003050010DE00EF324D96E000E3B
:10182800F420DA6EFE0EDE18D8A452D08BB602D0A1
:101838008B863DD08B963BD0000E316E1DC032F0AA
:10184800E00E1D24D96E000E1E20DA6EDF50336EB6
:10185800FF0E3A6EFF0E3B6E1DC03CF01EC03DF001
:101868003A503C263B503D22E00E3C24D96E000EF7
:101878003D20DA6EDF50346EFE0E3E6EFF0E3F6E78
:101888001DC040F01EC041F03E5040263F5041224E
:10189800E00E4024D96E000E4120DA6EDF50356E1E
:1018A800010EC6EC0AF0FE0E1D26FF0E1E221EBEFD
:1018B80006D01E50C1E1030E1D5CD8B0BDD7000E86
:1018C8002A6E010E296E000E1E6E000E1D6E12008D
:1018D8001D4A1E2A12002B042C10D8A40FD0000E6B
:1018E800306E060E306401D005D030505CEC09F043
:1018F800302AF7D7000E2C6E000E2B6E29042A1002
:10190800D8A40FD0000E306E060E306401D005D07A
:101918003050E2EC07F0302AF7D7000E2A6E000E9E
:10192800296E27042810D8A40FD0000E306E3F0E61
:10193800306401D005D0305060EC06F0302AF7D77B
:10194800000E286E000E276E25042610D8A40FD08E
:10195800000E306E3F0E306401D005D03050DEEC02
:1019680004F0302AF7D7000E266E000E256E2304E9
:101978002410D8A40FD0000E306E3F0E306401D072
:1019880005D030505CEC03F0302AF7D7000E246EF7
:10199800000E236E21042210D8A40FD0000E306E42
:1019A8003F0E306401D005D03050DAEC01F0302A17
:1019B800F7D7000E226E000E216E1F042010D8A447
:1019C8001200000E306E3F0E306401D005D030504A
:1019D80058EC00F0302AF7D7000E206E000E1F6E6C
:1019E80012009C0EF66E1D0EF76E000EF86E00EEDD
:1019F80052F010EE09F00900F5CFEEFFE550E15086
:101A0800FAE104EE00F0400EEE6AE806FDE103EEAE
:101A180000F011EE00F0EE6AE550E150FCE1E25012
:101A2800FAE102EE00F011EE00F0EE6AE550E15046
:101A3800FCE1E250FAE101EE00F011EE00F0EE6A8E
:101A4800E550E150FCE1E250FAE100EE60F09E0E54
:101A5800EE6AE806FDE100EE01F0300EEE6AE806F7
:101A6800FDE15B905B920001AFEF0EF059BE09D02B
:101A7800595003E15804D8A004D05806D8A05906F4
:101A88001200000E596E210E586E6FEC0CF057BE06
:101A980009D0575003E15604D8A004D05606D8A060
:101AA80057061200000E576E090E566EDFEC0EF048
:101AB80055BE09D0555003E15404D8A004D05406AB
:101AC800D8A055061200000E556E090E546EE0ECB3
:101AD8000EF053BE09D0535003E15204D8A004D0ED
:101AE8005206D8A053061200000E536E090E526E0D
:101AF800DEEC0EF01200000E896E0B0E926E000ED8
:101B08000F01386F000E8A6E000E936E000E0F01E3
:101B1800396F000E616E000E8B6E820E946E000E91
:101B28000F013A6FF18E12008A8A00F000F000F07F
:101B380000F000F000F000F000F000F000F000F01D
:101B480000F000F000F000F08A9A12008A8A00F093
:101B580000F000F000F000F000F000F000F000F0FD
:101B680000F000F000F000F000F000F08A9A120097
:101B78008A8800F000F000F000F000F000F000F0BB
:101B880000F000F000F000F000F000F000F000F0CD
:101B98008A9812008A8600F000F000F000F000F049
:101BA80000F000F000F000F000F000F000F000F0AD
:101BB80000F000F08A9612008A8400F000F000F02D
:101BC80000F000F000F000F000F000F000F000F08D
:101BD80000F000F000F000F08A9412008A8200F011
:101BE80000F000F000F000F000F000F000F000F06D
:101BF80000F000F000F000F000F000F08A9212000F
:101C08008A8000F000F000F000F000F000F000F032
:101C180000F000F000F000F000F000F000F000F03C
:101C28008A9012008A8A00F000F000F000F000F0BC
:101C380000F08A9A00F000F000F000F000F000F0E8
:101C480012008A8A00F000F000F000F000F000F0C6
:101C58008A9A00F000F000F000F000F000F01200A6
:101C68008A8800F000F000F000F000F000F08A9898
:101C780000F000F000F000F000F000F012008A869A
:101C880000F000F000F000F000F000F08A9600F09C
:101C980000F000F000F000F000F012008A8400F07C
:101CA80000F000F000F000F000F08A9400F000F07E
:101CB80000F000F000F000F012008A8200F000F05E
:101CC80000F000F000F000F08A9200F000F000F060
:101CD80000F000F000F012008A8000F000F000F040
:101CE80000F000F000F08A9000F000F000F000F042
:101CF80000F000F012009D9A9D98480EB86E900E64
:101D0800AB6E260EAC6E000EB06E890EAF6E9D8A5D
:101D18001200000E436EABA202D0AB98AB88AECFD8
:101D280043F04350AAEC0BF01200B8EC0EF07FEC35
:101D38000DF0C9EC0EF0A4EC0EF07FEC0EF01200E2
:101D4800C00ED56E010ED76E130ED66EF294F28ABF
:101D5800D9EC0EF0120099EC0EF0D3EC0EF0F28EE6
:101D6800F28CDDEC0EF0FFD7700ED36E040ED26E3F
:101D7800400E9B6ED2BE1200FDD7F294010ED76EB4
:101D8800130ED66ED6EC0EF01200D09EF1949F9AE8
:0D1D98009F981200090009000900040001D5
:101DA600F288F18C12003AEC0DF01200D58E12007A
:0C1DB6009D981200FFD7120012001200CE
:020000040020DA
:08000000FFFFFFFFFFFFFFFF00
:020000040030CA
:0E000000FF381F3CFFBF81FF0FC00FE00F4015
:00000001FF
